{
	"Bloque 4 Remix/SC_Conected/Addition.sol": {
		"Addition": {
			"abi": [
				{
					"inputs": [
						{
							"internalType": "address",
							"name": "resultado_",
							"type": "address"
						}
					],
					"stateMutability": "nonpayable",
					"type": "constructor"
				},
				{
					"inputs": [],
					"name": "resultado",
					"outputs": [
						{
							"internalType": "address",
							"name": "",
							"type": "address"
						}
					],
					"stateMutability": "view",
					"type": "function"
				},
				{
					"inputs": [
						{
							"internalType": "uint256",
							"name": "num1_",
							"type": "uint256"
						},
						{
							"internalType": "uint256",
							"name": "num2_",
							"type": "uint256"
						}
					],
					"name": "suma",
					"outputs": [],
					"stateMutability": "nonpayable",
					"type": "function"
				}
			],
			"devdoc": {
				"kind": "dev",
				"methods": {},
				"version": 1
			},
			"evm": {
				"assembly": "    /* \"Bloque 4 Remix/SC_Conected/Addition.sol\":140:526  contract Addition{... */\n  mstore(0x40, 0x80)\n    /* \"Bloque 4 Remix/SC_Conected/Addition.sol\":293:365  constructor(address resultado_){... */\n  callvalue\n  dup1\n  iszero\n  tag_1\n  jumpi\n  revert(0x00, 0x00)\ntag_1:\n  pop\n  mload(0x40)\n  sub(codesize, bytecodeSize)\n  dup1\n  bytecodeSize\n  dup4\n  codecopy\n  dup2\n  dup2\n  add\n  0x40\n  mstore\n  dup2\n  add\n  swap1\n  tag_2\n  swap2\n  swap1\n  tag_3\n  jump\t// in\ntag_2:\n    /* \"Bloque 4 Remix/SC_Conected/Addition.sol\":347:357  resultado_ */\n  dup1\n    /* \"Bloque 4 Remix/SC_Conected/Addition.sol\":335:344  resultado */\n  0x00\n  0x00\n    /* \"Bloque 4 Remix/SC_Conected/Addition.sol\":335:357  resultado = resultado_ */\n  0x0100\n  exp\n  dup2\n  sload\n  dup2\n  0xffffffffffffffffffffffffffffffffffffffff\n  mul\n  not\n  and\n  swap1\n  dup4\n  0xffffffffffffffffffffffffffffffffffffffff\n  and\n  mul\n  or\n  swap1\n  sstore\n  pop\n    /* \"Bloque 4 Remix/SC_Conected/Addition.sol\":293:365  constructor(address resultado_){... */\n  pop\n    /* \"Bloque 4 Remix/SC_Conected/Addition.sol\":140:526  contract Addition{... */\n  jump(tag_6)\n    /* \"#utility.yul\":88:205   */\ntag_8:\n    /* \"#utility.yul\":197:198   */\n  0x00\n    /* \"#utility.yul\":194:195   */\n  0x00\n    /* \"#utility.yul\":187:199   */\n  revert\n    /* \"#utility.yul\":334:460   */\ntag_10:\n    /* \"#utility.yul\":371:378   */\n  0x00\n    /* \"#utility.yul\":411:453   */\n  0xffffffffffffffffffffffffffffffffffffffff\n    /* \"#utility.yul\":404:409   */\n  dup3\n    /* \"#utility.yul\":400:454   */\n  and\n    /* \"#utility.yul\":389:454   */\n  swap1\n  pop\n    /* \"#utility.yul\":334:460   */\n  swap2\n  swap1\n  pop\n  jump\t// out\n    /* \"#utility.yul\":466:562   */\ntag_11:\n    /* \"#utility.yul\":503:510   */\n  0x00\n    /* \"#utility.yul\":532:556   */\n  tag_20\n    /* \"#utility.yul\":550:555   */\n  dup3\n    /* \"#utility.yul\":532:556   */\n  tag_10\n  jump\t// in\ntag_20:\n    /* \"#utility.yul\":521:556   */\n  swap1\n  pop\n    /* \"#utility.yul\":466:562   */\n  swap2\n  swap1\n  pop\n  jump\t// out\n    /* \"#utility.yul\":568:690   */\ntag_12:\n    /* \"#utility.yul\":641:665   */\n  tag_22\n    /* \"#utility.yul\":659:664   */\n  dup2\n    /* \"#utility.yul\":641:665   */\n  tag_11\n  jump\t// in\ntag_22:\n    /* \"#utility.yul\":634:639   */\n  dup2\n    /* \"#utility.yul\":631:666   */\n  eq\n    /* \"#utility.yul\":621:684   */\n  tag_23\n  jumpi\n    /* \"#utility.yul\":680:681   */\n  0x00\n    /* \"#utility.yul\":677:678   */\n  0x00\n    /* \"#utility.yul\":670:682   */\n  revert\n    /* \"#utility.yul\":621:684   */\ntag_23:\n    /* \"#utility.yul\":568:690   */\n  pop\n  jump\t// out\n    /* \"#utility.yul\":696:839   */\ntag_13:\n    /* \"#utility.yul\":753:758   */\n  0x00\n    /* \"#utility.yul\":784:790   */\n  dup2\n    /* \"#utility.yul\":778:791   */\n  mload\n    /* \"#utility.yul\":769:791   */\n  swap1\n  pop\n    /* \"#utility.yul\":800:833   */\n  tag_25\n    /* \"#utility.yul\":827:832   */\n  dup2\n    /* \"#utility.yul\":800:833   */\n  tag_12\n  jump\t// in\ntag_25:\n    /* \"#utility.yul\":696:839   */\n  swap3\n  swap2\n  pop\n  pop\n  jump\t// out\n    /* \"#utility.yul\":845:1196   */\ntag_3:\n    /* \"#utility.yul\":915:921   */\n  0x00\n    /* \"#utility.yul\":964:966   */\n  0x20\n    /* \"#utility.yul\":952:961   */\n  dup3\n    /* \"#utility.yul\":943:950   */\n  dup5\n    /* \"#utility.yul\":939:962   */\n  sub\n    /* \"#utility.yul\":935:967   */\n  slt\n    /* \"#utility.yul\":932:1051   */\n  iszero\n  tag_27\n  jumpi\n    /* \"#utility.yul\":970:1049   */\n  tag_28\n  tag_8\n  jump\t// in\ntag_28:\n    /* \"#utility.yul\":932:1051   */\ntag_27:\n    /* \"#utility.yul\":1090:1091   */\n  0x00\n    /* \"#utility.yul\":1115:1179   */\n  tag_29\n    /* \"#utility.yul\":1171:1178   */\n  dup5\n    /* \"#utility.yul\":1162:1168   */\n  dup3\n    /* \"#utility.yul\":1151:1160   */\n  dup6\n    /* \"#utility.yul\":1147:1169   */\n  add\n    /* \"#utility.yul\":1115:1179   */\n  tag_13\n  jump\t// in\ntag_29:\n    /* \"#utility.yul\":1105:1179   */\n  swap2\n  pop\n    /* \"#utility.yul\":1061:1189   */\n  pop\n    /* \"#utility.yul\":845:1196   */\n  swap3\n  swap2\n  pop\n  pop\n  jump\t// out\n    /* \"Bloque 4 Remix/SC_Conected/Addition.sol\":140:526  contract Addition{... */\ntag_6:\n  dataSize(sub_0)\n  dup1\n  dataOffset(sub_0)\n  0x00\n  codecopy\n  0x00\n  return\nstop\n\nsub_0: assembly {\n        /* \"Bloque 4 Remix/SC_Conected/Addition.sol\":140:526  contract Addition{... */\n      mstore(0x40, 0x80)\n      callvalue\n      dup1\n      iszero\n      tag_1\n      jumpi\n      revert(0x00, 0x00)\n    tag_1:\n      pop\n      jumpi(tag_2, lt(calldatasize, 0x04))\n      shr(0xe0, calldataload(0x00))\n      dup1\n      0x5206f100\n      eq\n      tag_3\n      jumpi\n      dup1\n      0xb1b45b1b\n      eq\n      tag_4\n      jumpi\n    tag_2:\n      revert(0x00, 0x00)\n        /* \"Bloque 4 Remix/SC_Conected/Addition.sol\":262:286  address public resultado */\n    tag_3:\n      tag_5\n      tag_6\n      jump\t// in\n    tag_5:\n      mload(0x40)\n      tag_7\n      swap2\n      swap1\n      tag_8\n      jump\t// in\n    tag_7:\n      mload(0x40)\n      dup1\n      swap2\n      sub\n      swap1\n      return\n        /* \"Bloque 4 Remix/SC_Conected/Addition.sol\":373:523  function suma(uint num1_, uint num2_) external{... */\n    tag_4:\n      tag_9\n      0x04\n      dup1\n      calldatasize\n      sub\n      dup2\n      add\n      swap1\n      tag_10\n      swap2\n      swap1\n      tag_11\n      jump\t// in\n    tag_10:\n      tag_12\n      jump\t// in\n    tag_9:\n      stop\n        /* \"Bloque 4 Remix/SC_Conected/Addition.sol\":262:286  address public resultado */\n    tag_6:\n      0x00\n      0x00\n      swap1\n      sload\n      swap1\n      0x0100\n      exp\n      swap1\n      div\n      0xffffffffffffffffffffffffffffffffffffffff\n      and\n      dup2\n      jump\t// out\n        /* \"Bloque 4 Remix/SC_Conected/Addition.sol\":373:523  function suma(uint num1_, uint num2_) external{... */\n    tag_12:\n        /* \"Bloque 4 Remix/SC_Conected/Addition.sol\":430:445  uint resultado_ */\n      0x00\n        /* \"Bloque 4 Remix/SC_Conected/Addition.sol\":456:461  num2_ */\n      dup2\n        /* \"Bloque 4 Remix/SC_Conected/Addition.sol\":448:453  num1_ */\n      dup4\n        /* \"Bloque 4 Remix/SC_Conected/Addition.sol\":448:461  num1_ + num2_ */\n      tag_14\n      swap2\n      swap1\n      tag_15\n      jump\t// in\n    tag_14:\n        /* \"Bloque 4 Remix/SC_Conected/Addition.sol\":430:461  uint resultado_ = num1_ + num2_ */\n      swap1\n      pop\n        /* \"Bloque 4 Remix/SC_Conected/Addition.sol\":483:492  resultado */\n      0x00\n      0x00\n      swap1\n      sload\n      swap1\n      0x0100\n      exp\n      swap1\n      div\n      0xffffffffffffffffffffffffffffffffffffffff\n      and\n        /* \"Bloque 4 Remix/SC_Conected/Addition.sol\":472:503  IResultado(resultado).setResult */\n      0xffffffffffffffffffffffffffffffffffffffff\n      and\n      0x812448a5\n        /* \"Bloque 4 Remix/SC_Conected/Addition.sol\":504:514  resultado_ */\n      dup3\n        /* \"Bloque 4 Remix/SC_Conected/Addition.sol\":472:515  IResultado(resultado).setResult(resultado_) */\n      mload(0x40)\n      dup3\n      0xffffffff\n      and\n      0xe0\n      shl\n      dup2\n      mstore\n      0x04\n      add\n      tag_16\n      swap2\n      swap1\n      tag_17\n      jump\t// in\n    tag_16:\n      0x00\n      mload(0x40)\n      dup1\n      dup4\n      sub\n      dup2\n      0x00\n      dup8\n      dup1\n      extcodesize\n      iszero\n      dup1\n      iszero\n      tag_18\n      jumpi\n      revert(0x00, 0x00)\n    tag_18:\n      pop\n      gas\n      call\n      iszero\n      dup1\n      iszero\n      tag_20\n      jumpi\n      returndatacopy(0x00, 0x00, returndatasize)\n      revert(0x00, returndatasize)\n    tag_20:\n      pop\n      pop\n      pop\n      pop\n        /* \"Bloque 4 Remix/SC_Conected/Addition.sol\":419:523  {... */\n      pop\n        /* \"Bloque 4 Remix/SC_Conected/Addition.sol\":373:523  function suma(uint num1_, uint num2_) external{... */\n      pop\n      pop\n      jump\t// out\n        /* \"#utility.yul\":7:133   */\n    tag_21:\n        /* \"#utility.yul\":44:51   */\n      0x00\n        /* \"#utility.yul\":84:126   */\n      0xffffffffffffffffffffffffffffffffffffffff\n        /* \"#utility.yul\":77:82   */\n      dup3\n        /* \"#utility.yul\":73:127   */\n      and\n        /* \"#utility.yul\":62:127   */\n      swap1\n      pop\n        /* \"#utility.yul\":7:133   */\n      swap2\n      swap1\n      pop\n      jump\t// out\n        /* \"#utility.yul\":139:235   */\n    tag_22:\n        /* \"#utility.yul\":176:183   */\n      0x00\n        /* \"#utility.yul\":205:229   */\n      tag_35\n        /* \"#utility.yul\":223:228   */\n      dup3\n        /* \"#utility.yul\":205:229   */\n      tag_21\n      jump\t// in\n    tag_35:\n        /* \"#utility.yul\":194:229   */\n      swap1\n      pop\n        /* \"#utility.yul\":139:235   */\n      swap2\n      swap1\n      pop\n      jump\t// out\n        /* \"#utility.yul\":241:359   */\n    tag_23:\n        /* \"#utility.yul\":328:352   */\n      tag_37\n        /* \"#utility.yul\":346:351   */\n      dup2\n        /* \"#utility.yul\":328:352   */\n      tag_22\n      jump\t// in\n    tag_37:\n        /* \"#utility.yul\":323:326   */\n      dup3\n        /* \"#utility.yul\":316:353   */\n      mstore\n        /* \"#utility.yul\":241:359   */\n      pop\n      pop\n      jump\t// out\n        /* \"#utility.yul\":365:587   */\n    tag_8:\n        /* \"#utility.yul\":458:462   */\n      0x00\n        /* \"#utility.yul\":496:498   */\n      0x20\n        /* \"#utility.yul\":485:494   */\n      dup3\n        /* \"#utility.yul\":481:499   */\n      add\n        /* \"#utility.yul\":473:499   */\n      swap1\n      pop\n        /* \"#utility.yul\":509:580   */\n      tag_39\n        /* \"#utility.yul\":577:578   */\n      0x00\n        /* \"#utility.yul\":566:575   */\n      dup4\n        /* \"#utility.yul\":562:579   */\n      add\n        /* \"#utility.yul\":553:559   */\n      dup5\n        /* \"#utility.yul\":509:580   */\n      tag_23\n      jump\t// in\n    tag_39:\n        /* \"#utility.yul\":365:587   */\n      swap3\n      swap2\n      pop\n      pop\n      jump\t// out\n        /* \"#utility.yul\":674:791   */\n    tag_25:\n        /* \"#utility.yul\":783:784   */\n      0x00\n        /* \"#utility.yul\":780:781   */\n      0x00\n        /* \"#utility.yul\":773:785   */\n      revert\n        /* \"#utility.yul\":920:997   */\n    tag_27:\n        /* \"#utility.yul\":957:964   */\n      0x00\n        /* \"#utility.yul\":986:991   */\n      dup2\n        /* \"#utility.yul\":975:991   */\n      swap1\n      pop\n        /* \"#utility.yul\":920:997   */\n      swap2\n      swap1\n      pop\n      jump\t// out\n        /* \"#utility.yul\":1003:1125   */\n    tag_28:\n        /* \"#utility.yul\":1076:1100   */\n      tag_45\n        /* \"#utility.yul\":1094:1099   */\n      dup2\n        /* \"#utility.yul\":1076:1100   */\n      tag_27\n      jump\t// in\n    tag_45:\n        /* \"#utility.yul\":1069:1074   */\n      dup2\n        /* \"#utility.yul\":1066:1101   */\n      eq\n        /* \"#utility.yul\":1056:1119   */\n      tag_46\n      jumpi\n        /* \"#utility.yul\":1115:1116   */\n      0x00\n        /* \"#utility.yul\":1112:1113   */\n      0x00\n        /* \"#utility.yul\":1105:1117   */\n      revert\n        /* \"#utility.yul\":1056:1119   */\n    tag_46:\n        /* \"#utility.yul\":1003:1125   */\n      pop\n      jump\t// out\n        /* \"#utility.yul\":1131:1270   */\n    tag_29:\n        /* \"#utility.yul\":1177:1182   */\n      0x00\n        /* \"#utility.yul\":1215:1221   */\n      dup2\n        /* \"#utility.yul\":1202:1222   */\n      calldataload\n        /* \"#utility.yul\":1193:1222   */\n      swap1\n      pop\n        /* \"#utility.yul\":1231:1264   */\n      tag_48\n        /* \"#utility.yul\":1258:1263   */\n      dup2\n        /* \"#utility.yul\":1231:1264   */\n      tag_28\n      jump\t// in\n    tag_48:\n        /* \"#utility.yul\":1131:1270   */\n      swap3\n      swap2\n      pop\n      pop\n      jump\t// out\n        /* \"#utility.yul\":1276:1750   */\n    tag_11:\n        /* \"#utility.yul\":1344:1350   */\n      0x00\n        /* \"#utility.yul\":1352:1358   */\n      0x00\n        /* \"#utility.yul\":1401:1403   */\n      0x40\n        /* \"#utility.yul\":1389:1398   */\n      dup4\n        /* \"#utility.yul\":1380:1387   */\n      dup6\n        /* \"#utility.yul\":1376:1399   */\n      sub\n        /* \"#utility.yul\":1372:1404   */\n      slt\n        /* \"#utility.yul\":1369:1488   */\n      iszero\n      tag_50\n      jumpi\n        /* \"#utility.yul\":1407:1486   */\n      tag_51\n      tag_25\n      jump\t// in\n    tag_51:\n        /* \"#utility.yul\":1369:1488   */\n    tag_50:\n        /* \"#utility.yul\":1527:1528   */\n      0x00\n        /* \"#utility.yul\":1552:1605   */\n      tag_52\n        /* \"#utility.yul\":1597:1604   */\n      dup6\n        /* \"#utility.yul\":1588:1594   */\n      dup3\n        /* \"#utility.yul\":1577:1586   */\n      dup7\n        /* \"#utility.yul\":1573:1595   */\n      add\n        /* \"#utility.yul\":1552:1605   */\n      tag_29\n      jump\t// in\n    tag_52:\n        /* \"#utility.yul\":1542:1605   */\n      swap3\n      pop\n        /* \"#utility.yul\":1498:1615   */\n      pop\n        /* \"#utility.yul\":1654:1656   */\n      0x20\n        /* \"#utility.yul\":1680:1733   */\n      tag_53\n        /* \"#utility.yul\":1725:1732   */\n      dup6\n        /* \"#utility.yul\":1716:1722   */\n      dup3\n        /* \"#utility.yul\":1705:1714   */\n      dup7\n        /* \"#utility.yul\":1701:1723   */\n      add\n        /* \"#utility.yul\":1680:1733   */\n      tag_29\n      jump\t// in\n    tag_53:\n        /* \"#utility.yul\":1670:1733   */\n      swap2\n      pop\n        /* \"#utility.yul\":1625:1743   */\n      pop\n        /* \"#utility.yul\":1276:1750   */\n      swap3\n      pop\n      swap3\n      swap1\n      pop\n      jump\t// out\n        /* \"#utility.yul\":1756:1936   */\n    tag_30:\n        /* \"#utility.yul\":1804:1881   */\n      0x4e487b7100000000000000000000000000000000000000000000000000000000\n        /* \"#utility.yul\":1801:1802   */\n      0x00\n        /* \"#utility.yul\":1794:1882   */\n      mstore\n        /* \"#utility.yul\":1901:1905   */\n      0x11\n        /* \"#utility.yul\":1898:1899   */\n      0x04\n        /* \"#utility.yul\":1891:1906   */\n      mstore\n        /* \"#utility.yul\":1925:1929   */\n      0x24\n        /* \"#utility.yul\":1922:1923   */\n      0x00\n        /* \"#utility.yul\":1915:1930   */\n      revert\n        /* \"#utility.yul\":1942:2133   */\n    tag_15:\n        /* \"#utility.yul\":1982:1985   */\n      0x00\n        /* \"#utility.yul\":2001:2021   */\n      tag_56\n        /* \"#utility.yul\":2019:2020   */\n      dup3\n        /* \"#utility.yul\":2001:2021   */\n      tag_27\n      jump\t// in\n    tag_56:\n        /* \"#utility.yul\":1996:2021   */\n      swap2\n      pop\n        /* \"#utility.yul\":2035:2055   */\n      tag_57\n        /* \"#utility.yul\":2053:2054   */\n      dup4\n        /* \"#utility.yul\":2035:2055   */\n      tag_27\n      jump\t// in\n    tag_57:\n        /* \"#utility.yul\":2030:2055   */\n      swap3\n      pop\n        /* \"#utility.yul\":2078:2079   */\n      dup3\n        /* \"#utility.yul\":2075:2076   */\n      dup3\n        /* \"#utility.yul\":2071:2080   */\n      add\n        /* \"#utility.yul\":2064:2080   */\n      swap1\n      pop\n        /* \"#utility.yul\":2099:2102   */\n      dup1\n        /* \"#utility.yul\":2096:2097   */\n      dup3\n        /* \"#utility.yul\":2093:2103   */\n      gt\n        /* \"#utility.yul\":2090:2126   */\n      iszero\n      tag_58\n      jumpi\n        /* \"#utility.yul\":2106:2124   */\n      tag_59\n      tag_30\n      jump\t// in\n    tag_59:\n        /* \"#utility.yul\":2090:2126   */\n    tag_58:\n        /* \"#utility.yul\":1942:2133   */\n      swap3\n      swap2\n      pop\n      pop\n      jump\t// out\n        /* \"#utility.yul\":2139:2257   */\n    tag_31:\n        /* \"#utility.yul\":2226:2250   */\n      tag_61\n        /* \"#utility.yul\":2244:2249   */\n      dup2\n        /* \"#utility.yul\":2226:2250   */\n      tag_27\n      jump\t// in\n    tag_61:\n        /* \"#utility.yul\":2221:2224   */\n      dup3\n        /* \"#utility.yul\":2214:2251   */\n      mstore\n        /* \"#utility.yul\":2139:2257   */\n      pop\n      pop\n      jump\t// out\n        /* \"#utility.yul\":2263:2485   */\n    tag_17:\n        /* \"#utility.yul\":2356:2360   */\n      0x00\n        /* \"#utility.yul\":2394:2396   */\n      0x20\n        /* \"#utility.yul\":2383:2392   */\n      dup3\n        /* \"#utility.yul\":2379:2397   */\n      add\n        /* \"#utility.yul\":2371:2397   */\n      swap1\n      pop\n        /* \"#utility.yul\":2407:2478   */\n      tag_63\n        /* \"#utility.yul\":2475:2476   */\n      0x00\n        /* \"#utility.yul\":2464:2473   */\n      dup4\n        /* \"#utility.yul\":2460:2477   */\n      add\n        /* \"#utility.yul\":2451:2457   */\n      dup5\n        /* \"#utility.yul\":2407:2478   */\n      tag_31\n      jump\t// in\n    tag_63:\n        /* \"#utility.yul\":2263:2485   */\n      swap3\n      swap2\n      pop\n      pop\n      jump\t// out\n\n    auxdata: 0xa264697066735822122008621f3310f27d1704526e2e504fa769db244b7e6a219d14f41a92e982ee823664736f6c634300081c0033\n}\n",
				"bytecode": {
					"linkReferences": {},
					"object": "608060405234801561000f575f5ffd5b506040516103c73803806103c7833981810160405281019061003191906100d4565b805f5f6101000a81548173ffffffffffffffffffffffffffffffffffffffff021916908373ffffffffffffffffffffffffffffffffffffffff160217905550506100ff565b5f5ffd5b5f73ffffffffffffffffffffffffffffffffffffffff82169050919050565b5f6100a38261007a565b9050919050565b6100b381610099565b81146100bd575f5ffd5b50565b5f815190506100ce816100aa565b92915050565b5f602082840312156100e9576100e8610076565b5b5f6100f6848285016100c0565b91505092915050565b6102bb8061010c5f395ff3fe608060405234801561000f575f5ffd5b5060043610610034575f3560e01c80635206f10014610038578063b1b45b1b14610056575b5f5ffd5b610040610072565b60405161004d919061016f565b60405180910390f35b610070600480360381019061006b91906101bf565b610096565b005b5f5f9054906101000a900473ffffffffffffffffffffffffffffffffffffffff1681565b5f81836100a3919061022a565b90505f5f9054906101000a900473ffffffffffffffffffffffffffffffffffffffff1673ffffffffffffffffffffffffffffffffffffffff1663812448a5826040518263ffffffff1660e01b81526004016100fe919061026c565b5f604051808303815f87803b158015610115575f5ffd5b505af1158015610127573d5f5f3e3d5ffd5b50505050505050565b5f73ffffffffffffffffffffffffffffffffffffffff82169050919050565b5f61015982610130565b9050919050565b6101698161014f565b82525050565b5f6020820190506101825f830184610160565b92915050565b5f5ffd5b5f819050919050565b61019e8161018c565b81146101a8575f5ffd5b50565b5f813590506101b981610195565b92915050565b5f5f604083850312156101d5576101d4610188565b5b5f6101e2858286016101ab565b92505060206101f3858286016101ab565b9150509250929050565b7f4e487b71000000000000000000000000000000000000000000000000000000005f52601160045260245ffd5b5f6102348261018c565b915061023f8361018c565b9250828201905080821115610257576102566101fd565b5b92915050565b6102668161018c565b82525050565b5f60208201905061027f5f83018461025d565b9291505056fea264697066735822122008621f3310f27d1704526e2e504fa769db244b7e6a219d14f41a92e982ee823664736f6c634300081c0033",
					"opcodes": "PUSH1 0x80 PUSH1 0x40 MSTORE CALLVALUE DUP1 ISZERO PUSH2 0xF JUMPI PUSH0 PUSH0 REVERT JUMPDEST POP PUSH1 0x40 MLOAD PUSH2 0x3C7 CODESIZE SUB DUP1 PUSH2 0x3C7 DUP4 CODECOPY DUP2 DUP2 ADD PUSH1 0x40 MSTORE DUP2 ADD SWAP1 PUSH2 0x31 SWAP2 SWAP1 PUSH2 0xD4 JUMP JUMPDEST DUP1 PUSH0 PUSH0 PUSH2 0x100 EXP DUP2 SLOAD DUP2 PUSH20 0xFFFFFFFFFFFFFFFFFFFFFFFFFFFFFFFFFFFFFFFF MUL NOT AND SWAP1 DUP4 PUSH20 0xFFFFFFFFFFFFFFFFFFFFFFFFFFFFFFFFFFFFFFFF AND MUL OR SWAP1 SSTORE POP POP PUSH2 0xFF JUMP JUMPDEST PUSH0 PUSH0 REVERT JUMPDEST PUSH0 PUSH20 0xFFFFFFFFFFFFFFFFFFFFFFFFFFFFFFFFFFFFFFFF DUP3 AND SWAP1 POP SWAP2 SWAP1 POP JUMP JUMPDEST PUSH0 PUSH2 0xA3 DUP3 PUSH2 0x7A JUMP JUMPDEST SWAP1 POP SWAP2 SWAP1 POP JUMP JUMPDEST PUSH2 0xB3 DUP2 PUSH2 0x99 JUMP JUMPDEST DUP2 EQ PUSH2 0xBD JUMPI PUSH0 PUSH0 REVERT JUMPDEST POP JUMP JUMPDEST PUSH0 DUP2 MLOAD SWAP1 POP PUSH2 0xCE DUP2 PUSH2 0xAA JUMP JUMPDEST SWAP3 SWAP2 POP POP JUMP JUMPDEST PUSH0 PUSH1 0x20 DUP3 DUP5 SUB SLT ISZERO PUSH2 0xE9 JUMPI PUSH2 0xE8 PUSH2 0x76 JUMP JUMPDEST JUMPDEST PUSH0 PUSH2 0xF6 DUP5 DUP3 DUP6 ADD PUSH2 0xC0 JUMP JUMPDEST SWAP2 POP POP SWAP3 SWAP2 POP POP JUMP JUMPDEST PUSH2 0x2BB DUP1 PUSH2 0x10C PUSH0 CODECOPY PUSH0 RETURN INVALID PUSH1 0x80 PUSH1 0x40 MSTORE CALLVALUE DUP1 ISZERO PUSH2 0xF JUMPI PUSH0 PUSH0 REVERT JUMPDEST POP PUSH1 0x4 CALLDATASIZE LT PUSH2 0x34 JUMPI PUSH0 CALLDATALOAD PUSH1 0xE0 SHR DUP1 PUSH4 0x5206F100 EQ PUSH2 0x38 JUMPI DUP1 PUSH4 0xB1B45B1B EQ PUSH2 0x56 JUMPI JUMPDEST PUSH0 PUSH0 REVERT JUMPDEST PUSH2 0x40 PUSH2 0x72 JUMP JUMPDEST PUSH1 0x40 MLOAD PUSH2 0x4D SWAP2 SWAP1 PUSH2 0x16F JUMP JUMPDEST PUSH1 0x40 MLOAD DUP1 SWAP2 SUB SWAP1 RETURN JUMPDEST PUSH2 0x70 PUSH1 0x4 DUP1 CALLDATASIZE SUB DUP2 ADD SWAP1 PUSH2 0x6B SWAP2 SWAP1 PUSH2 0x1BF JUMP JUMPDEST PUSH2 0x96 JUMP JUMPDEST STOP JUMPDEST PUSH0 PUSH0 SWAP1 SLOAD SWAP1 PUSH2 0x100 EXP SWAP1 DIV PUSH20 0xFFFFFFFFFFFFFFFFFFFFFFFFFFFFFFFFFFFFFFFF AND DUP2 JUMP JUMPDEST PUSH0 DUP2 DUP4 PUSH2 0xA3 SWAP2 SWAP1 PUSH2 0x22A JUMP JUMPDEST SWAP1 POP PUSH0 PUSH0 SWAP1 SLOAD SWAP1 PUSH2 0x100 EXP SWAP1 DIV PUSH20 0xFFFFFFFFFFFFFFFFFFFFFFFFFFFFFFFFFFFFFFFF AND PUSH20 0xFFFFFFFFFFFFFFFFFFFFFFFFFFFFFFFFFFFFFFFF AND PUSH4 0x812448A5 DUP3 PUSH1 0x40 MLOAD DUP3 PUSH4 0xFFFFFFFF AND PUSH1 0xE0 SHL DUP2 MSTORE PUSH1 0x4 ADD PUSH2 0xFE SWAP2 SWAP1 PUSH2 0x26C JUMP JUMPDEST PUSH0 PUSH1 0x40 MLOAD DUP1 DUP4 SUB DUP2 PUSH0 DUP8 DUP1 EXTCODESIZE ISZERO DUP1 ISZERO PUSH2 0x115 JUMPI PUSH0 PUSH0 REVERT JUMPDEST POP GAS CALL ISZERO DUP1 ISZERO PUSH2 0x127 JUMPI RETURNDATASIZE PUSH0 PUSH0 RETURNDATACOPY RETURNDATASIZE PUSH0 REVERT JUMPDEST POP POP POP POP POP POP POP JUMP JUMPDEST PUSH0 PUSH20 0xFFFFFFFFFFFFFFFFFFFFFFFFFFFFFFFFFFFFFFFF DUP3 AND SWAP1 POP SWAP2 SWAP1 POP JUMP JUMPDEST PUSH0 PUSH2 0x159 DUP3 PUSH2 0x130 JUMP JUMPDEST SWAP1 POP SWAP2 SWAP1 POP JUMP JUMPDEST PUSH2 0x169 DUP2 PUSH2 0x14F JUMP JUMPDEST DUP3 MSTORE POP POP JUMP JUMPDEST PUSH0 PUSH1 0x20 DUP3 ADD SWAP1 POP PUSH2 0x182 PUSH0 DUP4 ADD DUP5 PUSH2 0x160 JUMP JUMPDEST SWAP3 SWAP2 POP POP JUMP JUMPDEST PUSH0 PUSH0 REVERT JUMPDEST PUSH0 DUP2 SWAP1 POP SWAP2 SWAP1 POP JUMP JUMPDEST PUSH2 0x19E DUP2 PUSH2 0x18C JUMP JUMPDEST DUP2 EQ PUSH2 0x1A8 JUMPI PUSH0 PUSH0 REVERT JUMPDEST POP JUMP JUMPDEST PUSH0 DUP2 CALLDATALOAD SWAP1 POP PUSH2 0x1B9 DUP2 PUSH2 0x195 JUMP JUMPDEST SWAP3 SWAP2 POP POP JUMP JUMPDEST PUSH0 PUSH0 PUSH1 0x40 DUP4 DUP6 SUB SLT ISZERO PUSH2 0x1D5 JUMPI PUSH2 0x1D4 PUSH2 0x188 JUMP JUMPDEST JUMPDEST PUSH0 PUSH2 0x1E2 DUP6 DUP3 DUP7 ADD PUSH2 0x1AB JUMP JUMPDEST SWAP3 POP POP PUSH1 0x20 PUSH2 0x1F3 DUP6 DUP3 DUP7 ADD PUSH2 0x1AB JUMP JUMPDEST SWAP2 POP POP SWAP3 POP SWAP3 SWAP1 POP JUMP JUMPDEST PUSH32 0x4E487B7100000000000000000000000000000000000000000000000000000000 PUSH0 MSTORE PUSH1 0x11 PUSH1 0x4 MSTORE PUSH1 0x24 PUSH0 REVERT JUMPDEST PUSH0 PUSH2 0x234 DUP3 PUSH2 0x18C JUMP JUMPDEST SWAP2 POP PUSH2 0x23F DUP4 PUSH2 0x18C JUMP JUMPDEST SWAP3 POP DUP3 DUP3 ADD SWAP1 POP DUP1 DUP3 GT ISZERO PUSH2 0x257 JUMPI PUSH2 0x256 PUSH2 0x1FD JUMP JUMPDEST JUMPDEST SWAP3 SWAP2 POP POP JUMP JUMPDEST PUSH2 0x266 DUP2 PUSH2 0x18C JUMP JUMPDEST DUP3 MSTORE POP POP JUMP JUMPDEST PUSH0 PUSH1 0x20 DUP3 ADD SWAP1 POP PUSH2 0x27F PUSH0 DUP4 ADD DUP5 PUSH2 0x25D JUMP JUMPDEST SWAP3 SWAP2 POP POP JUMP INVALID LOG2 PUSH5 0x6970667358 0x22 SLT KECCAK256 ADDMOD PUSH3 0x1F3310 CALLCODE PUSH30 0x1704526E2E504FA769DB244B7E6A219D14F41A92E982EE823664736F6C63 NUMBER STOP ADDMOD SHR STOP CALLER "
				},
				"gasEstimates": {
					"creation": {
						"codeDepositCost": "139800",
						"executionCost": "infinite",
						"totalCost": "infinite"
					},
					"external": {
						"resultado()": "2485",
						"suma(uint256,uint256)": "infinite"
					}
				},
				"methodIdentifiers": {
					"resultado()": "5206f100",
					"suma(uint256,uint256)": "b1b45b1b"
				}
			},
			"storageLayout": {
				"storage": [
					{
						"astId": 4,
						"contract": "Bloque 4 Remix/SC_Conected/Addition.sol:Addition",
						"label": "resultado",
						"offset": 0,
						"slot": "0",
						"type": "t_address"
					}
				],
				"types": {
					"t_address": {
						"encoding": "inplace",
						"label": "address",
						"numberOfBytes": "20"
					}
				}
			},
			"userdoc": {
				"kind": "user",
				"methods": {},
				"version": 1
			}
		}
	}
}