{
	"Bloque 4 Remix/J.12-EjemploPractico/ContractA.sol": {
		"ContratoA": {
			"abi": [
				{
					"inputs": [
						{
							"internalType": "address",
							"name": "_contratoB",
							"type": "address"
						},
						{
							"internalType": "address",
							"name": "_contratoD",
							"type": "address"
						}
					],
					"stateMutability": "nonpayable",
					"type": "constructor"
				},
				{
					"inputs": [],
					"name": "contratoB",
					"outputs": [
						{
							"internalType": "address payable",
							"name": "",
							"type": "address"
						}
					],
					"stateMutability": "view",
					"type": "function"
				},
				{
					"inputs": [],
					"name": "contratoD",
					"outputs": [
						{
							"internalType": "address",
							"name": "",
							"type": "address"
						}
					],
					"stateMutability": "view",
					"type": "function"
				},
				{
					"inputs": [
						{
							"internalType": "uint256",
							"name": "cantidadAEnviar_",
							"type": "uint256"
						}
					],
					"name": "enviarAEtherAlContratoB",
					"outputs": [],
					"stateMutability": "nonpayable",
					"type": "function"
				},
				{
					"inputs": [],
					"name": "fee",
					"outputs": [
						{
							"internalType": "uint256",
							"name": "",
							"type": "uint256"
						}
					],
					"stateMutability": "view",
					"type": "function"
				},
				{
					"inputs": [
						{
							"internalType": "uint256",
							"name": "amount_",
							"type": "uint256"
						}
					],
					"name": "withdrawEther",
					"outputs": [],
					"stateMutability": "nonpayable",
					"type": "function"
				},
				{
					"stateMutability": "payable",
					"type": "receive"
				}
			],
			"devdoc": {
				"kind": "dev",
				"methods": {},
				"version": 1
			},
			"evm": {
				"assembly": "    /* \"Bloque 4 Remix/J.12-EjemploPractico/ContractA.sol\":191:1814  contract ContratoA {... */\n  mstore(0x40, 0x80)\n    /* \"Bloque 4 Remix/J.12-EjemploPractico/ContractA.sol\":318:453  constructor(address _contratoB, address _contratoD) {... */\n  callvalue\n  dup1\n  iszero\n  tag_1\n  jumpi\n  revert(0x00, 0x00)\ntag_1:\n  pop\n  mload(0x40)\n  sub(codesize, bytecodeSize)\n  dup1\n  bytecodeSize\n  dup4\n  codecopy\n  dup2\n  dup2\n  add\n  0x40\n  mstore\n  dup2\n  add\n  swap1\n  tag_2\n  swap2\n  swap1\n  tag_3\n  jump\t// in\ntag_2:\n    /* \"Bloque 4 Remix/J.12-EjemploPractico/ContractA.sol\":401:411  _contratoB */\n  dup2\n    /* \"Bloque 4 Remix/J.12-EjemploPractico/ContractA.sol\":381:390  contratoB */\n  0x00\n  0x00\n    /* \"Bloque 4 Remix/J.12-EjemploPractico/ContractA.sol\":381:412  contratoB = payable(_contratoB) */\n  0x0100\n  exp\n  dup2\n  sload\n  dup2\n  0xffffffffffffffffffffffffffffffffffffffff\n  mul\n  not\n  and\n  swap1\n  dup4\n  0xffffffffffffffffffffffffffffffffffffffff\n  and\n  mul\n  or\n  swap1\n  sstore\n  pop\n    /* \"Bloque 4 Remix/J.12-EjemploPractico/ContractA.sol\":435:445  _contratoD */\n  dup1\n    /* \"Bloque 4 Remix/J.12-EjemploPractico/ContractA.sol\":423:432  contratoD */\n  0x01\n  0x00\n    /* \"Bloque 4 Remix/J.12-EjemploPractico/ContractA.sol\":423:445  contratoD = _contratoD */\n  0x0100\n  exp\n  dup2\n  sload\n  dup2\n  0xffffffffffffffffffffffffffffffffffffffff\n  mul\n  not\n  and\n  swap1\n  dup4\n  0xffffffffffffffffffffffffffffffffffffffff\n  and\n  mul\n  or\n  swap1\n  sstore\n  pop\n    /* \"Bloque 4 Remix/J.12-EjemploPractico/ContractA.sol\":318:453  constructor(address _contratoB, address _contratoD) {... */\n  pop\n  pop\n    /* \"Bloque 4 Remix/J.12-EjemploPractico/ContractA.sol\":191:1814  contract ContratoA {... */\n  jump(tag_6)\n    /* \"#utility.yul\":88:205   */\ntag_8:\n    /* \"#utility.yul\":197:198   */\n  0x00\n    /* \"#utility.yul\":194:195   */\n  0x00\n    /* \"#utility.yul\":187:199   */\n  revert\n    /* \"#utility.yul\":334:460   */\ntag_10:\n    /* \"#utility.yul\":371:378   */\n  0x00\n    /* \"#utility.yul\":411:453   */\n  0xffffffffffffffffffffffffffffffffffffffff\n    /* \"#utility.yul\":404:409   */\n  dup3\n    /* \"#utility.yul\":400:454   */\n  and\n    /* \"#utility.yul\":389:454   */\n  swap1\n  pop\n    /* \"#utility.yul\":334:460   */\n  swap2\n  swap1\n  pop\n  jump\t// out\n    /* \"#utility.yul\":466:562   */\ntag_11:\n    /* \"#utility.yul\":503:510   */\n  0x00\n    /* \"#utility.yul\":532:556   */\n  tag_20\n    /* \"#utility.yul\":550:555   */\n  dup3\n    /* \"#utility.yul\":532:556   */\n  tag_10\n  jump\t// in\ntag_20:\n    /* \"#utility.yul\":521:556   */\n  swap1\n  pop\n    /* \"#utility.yul\":466:562   */\n  swap2\n  swap1\n  pop\n  jump\t// out\n    /* \"#utility.yul\":568:690   */\ntag_12:\n    /* \"#utility.yul\":641:665   */\n  tag_22\n    /* \"#utility.yul\":659:664   */\n  dup2\n    /* \"#utility.yul\":641:665   */\n  tag_11\n  jump\t// in\ntag_22:\n    /* \"#utility.yul\":634:639   */\n  dup2\n    /* \"#utility.yul\":631:666   */\n  eq\n    /* \"#utility.yul\":621:684   */\n  tag_23\n  jumpi\n    /* \"#utility.yul\":680:681   */\n  0x00\n    /* \"#utility.yul\":677:678   */\n  0x00\n    /* \"#utility.yul\":670:682   */\n  revert\n    /* \"#utility.yul\":621:684   */\ntag_23:\n    /* \"#utility.yul\":568:690   */\n  pop\n  jump\t// out\n    /* \"#utility.yul\":696:839   */\ntag_13:\n    /* \"#utility.yul\":753:758   */\n  0x00\n    /* \"#utility.yul\":784:790   */\n  dup2\n    /* \"#utility.yul\":778:791   */\n  mload\n    /* \"#utility.yul\":769:791   */\n  swap1\n  pop\n    /* \"#utility.yul\":800:833   */\n  tag_25\n    /* \"#utility.yul\":827:832   */\n  dup2\n    /* \"#utility.yul\":800:833   */\n  tag_12\n  jump\t// in\ntag_25:\n    /* \"#utility.yul\":696:839   */\n  swap3\n  swap2\n  pop\n  pop\n  jump\t// out\n    /* \"#utility.yul\":845:1352   */\ntag_3:\n    /* \"#utility.yul\":924:930   */\n  0x00\n    /* \"#utility.yul\":932:938   */\n  0x00\n    /* \"#utility.yul\":981:983   */\n  0x40\n    /* \"#utility.yul\":969:978   */\n  dup4\n    /* \"#utility.yul\":960:967   */\n  dup6\n    /* \"#utility.yul\":956:979   */\n  sub\n    /* \"#utility.yul\":952:984   */\n  slt\n    /* \"#utility.yul\":949:1068   */\n  iszero\n  tag_27\n  jumpi\n    /* \"#utility.yul\":987:1066   */\n  tag_28\n  tag_8\n  jump\t// in\ntag_28:\n    /* \"#utility.yul\":949:1068   */\ntag_27:\n    /* \"#utility.yul\":1107:1108   */\n  0x00\n    /* \"#utility.yul\":1132:1196   */\n  tag_29\n    /* \"#utility.yul\":1188:1195   */\n  dup6\n    /* \"#utility.yul\":1179:1185   */\n  dup3\n    /* \"#utility.yul\":1168:1177   */\n  dup7\n    /* \"#utility.yul\":1164:1186   */\n  add\n    /* \"#utility.yul\":1132:1196   */\n  tag_13\n  jump\t// in\ntag_29:\n    /* \"#utility.yul\":1122:1196   */\n  swap3\n  pop\n    /* \"#utility.yul\":1078:1206   */\n  pop\n    /* \"#utility.yul\":1245:1247   */\n  0x20\n    /* \"#utility.yul\":1271:1335   */\n  tag_30\n    /* \"#utility.yul\":1327:1334   */\n  dup6\n    /* \"#utility.yul\":1318:1324   */\n  dup3\n    /* \"#utility.yul\":1307:1316   */\n  dup7\n    /* \"#utility.yul\":1303:1325   */\n  add\n    /* \"#utility.yul\":1271:1335   */\n  tag_13\n  jump\t// in\ntag_30:\n    /* \"#utility.yul\":1261:1335   */\n  swap2\n  pop\n    /* \"#utility.yul\":1216:1345   */\n  pop\n    /* \"#utility.yul\":845:1352   */\n  swap3\n  pop\n  swap3\n  swap1\n  pop\n  jump\t// out\n    /* \"Bloque 4 Remix/J.12-EjemploPractico/ContractA.sol\":191:1814  contract ContratoA {... */\ntag_6:\n  dataSize(sub_0)\n  dup1\n  dataOffset(sub_0)\n  0x00\n  codecopy\n  0x00\n  return\nstop\n\nsub_0: assembly {\n        /* \"Bloque 4 Remix/J.12-EjemploPractico/ContractA.sol\":191:1814  contract ContratoA {... */\n      mstore(0x40, 0x80)\n      jumpi(tag_1, lt(calldatasize, 0x04))\n      shr(0xe0, calldataload(0x00))\n      dup1\n      0x05c3c87c\n      eq\n      tag_3\n      jumpi\n      dup1\n      0x3bed33ce\n      eq\n      tag_4\n      jumpi\n      dup1\n      0x3f4ee79f\n      eq\n      tag_5\n      jumpi\n      dup1\n      0x9b690fb2\n      eq\n      tag_6\n      jumpi\n      dup1\n      0xddca3f43\n      eq\n      tag_7\n      jumpi\n      jump(tag_2)\n    tag_1:\n      jumpi(tag_2, calldatasize)\n      stop\n    tag_2:\n      revert(0x00, 0x00)\n        /* \"Bloque 4 Remix/J.12-EjemploPractico/ContractA.sol\":256:280  address public contratoD */\n    tag_3:\n      callvalue\n      dup1\n      iszero\n      tag_10\n      jumpi\n      revert(0x00, 0x00)\n    tag_10:\n      pop\n      tag_11\n      tag_12\n      jump\t// in\n    tag_11:\n      mload(0x40)\n      tag_13\n      swap2\n      swap1\n      tag_14\n      jump\t// in\n    tag_13:\n      mload(0x40)\n      dup1\n      swap2\n      sub\n      swap1\n      return\n        /* \"Bloque 4 Remix/J.12-EjemploPractico/ContractA.sol\":1583:1811  function withdrawEther(uint256 amount_) public {... */\n    tag_4:\n      callvalue\n      dup1\n      iszero\n      tag_15\n      jumpi\n      revert(0x00, 0x00)\n    tag_15:\n      pop\n      tag_16\n      0x04\n      dup1\n      calldatasize\n      sub\n      dup2\n      add\n      swap1\n      tag_17\n      swap2\n      swap1\n      tag_18\n      jump\t// in\n    tag_17:\n      tag_19\n      jump\t// in\n    tag_16:\n      stop\n        /* \"Bloque 4 Remix/J.12-EjemploPractico/ContractA.sol\":217:249  address payable public contratoB */\n    tag_5:\n      callvalue\n      dup1\n      iszero\n      tag_20\n      jumpi\n      revert(0x00, 0x00)\n    tag_20:\n      pop\n      tag_21\n      tag_22\n      jump\t// in\n    tag_21:\n      mload(0x40)\n      tag_23\n      swap2\n      swap1\n      tag_24\n      jump\t// in\n    tag_23:\n      mload(0x40)\n      dup1\n      swap2\n      sub\n      swap1\n      return\n        /* \"Bloque 4 Remix/J.12-EjemploPractico/ContractA.sol\":789:1558  function enviarAEtherAlContratoB(uint256 cantidadAEnviar_) external {... */\n    tag_6:\n      callvalue\n      dup1\n      iszero\n      tag_25\n      jumpi\n      revert(0x00, 0x00)\n    tag_25:\n      pop\n      tag_26\n      0x04\n      dup1\n      calldatasize\n      sub\n      dup2\n      add\n      swap1\n      tag_27\n      swap2\n      swap1\n      tag_18\n      jump\t// in\n    tag_27:\n      tag_28\n      jump\t// in\n    tag_26:\n      stop\n        /* \"Bloque 4 Remix/J.12-EjemploPractico/ContractA.sol\":287:305  uint256 public fee */\n    tag_7:\n      callvalue\n      dup1\n      iszero\n      tag_29\n      jumpi\n      revert(0x00, 0x00)\n    tag_29:\n      pop\n      tag_30\n      tag_31\n      jump\t// in\n    tag_30:\n      mload(0x40)\n      tag_32\n      swap2\n      swap1\n      tag_33\n      jump\t// in\n    tag_32:\n      mload(0x40)\n      dup1\n      swap2\n      sub\n      swap1\n      return\n        /* \"Bloque 4 Remix/J.12-EjemploPractico/ContractA.sol\":256:280  address public contratoD */\n    tag_12:\n      0x01\n      0x00\n      swap1\n      sload\n      swap1\n      0x0100\n      exp\n      swap1\n      div\n      0xffffffffffffffffffffffffffffffffffffffff\n      and\n      dup2\n      jump\t// out\n        /* \"Bloque 4 Remix/J.12-EjemploPractico/ContractA.sol\":1583:1811  function withdrawEther(uint256 amount_) public {... */\n    tag_19:\n        /* \"Bloque 4 Remix/J.12-EjemploPractico/ContractA.sol\":1703:1715  bool success */\n      0x00\n        /* \"Bloque 4 Remix/J.12-EjemploPractico/ContractA.sol\":1720:1730  msg.sender */\n      caller\n        /* \"Bloque 4 Remix/J.12-EjemploPractico/ContractA.sol\":1720:1735  msg.sender.call */\n      0xffffffffffffffffffffffffffffffffffffffff\n      and\n        /* \"Bloque 4 Remix/J.12-EjemploPractico/ContractA.sol\":1743:1750  amount_ */\n      dup3\n        /* \"Bloque 4 Remix/J.12-EjemploPractico/ContractA.sol\":1720:1755  msg.sender.call{value: amount_}(\"\") */\n      mload(0x40)\n      tag_35\n      swap1\n      tag_36\n      jump\t// in\n    tag_35:\n      0x00\n      mload(0x40)\n      dup1\n      dup4\n      sub\n      dup2\n      dup6\n      dup8\n      gas\n      call\n      swap3\n      pop\n      pop\n      pop\n      returndatasize\n      dup1\n      0x00\n      dup2\n      eq\n      tag_39\n      jumpi\n      mload(0x40)\n      swap2\n      pop\n      and(add(returndatasize, 0x3f), not(0x1f))\n      dup3\n      add\n      0x40\n      mstore\n      returndatasize\n      dup3\n      mstore\n      returndatasize\n      0x00\n      0x20\n      dup5\n      add\n      returndatacopy\n      jump(tag_38)\n    tag_39:\n      0x60\n      swap2\n      pop\n    tag_38:\n      pop\n        /* \"Bloque 4 Remix/J.12-EjemploPractico/ContractA.sol\":1702:1755  (bool success, )= msg.sender.call{value: amount_}(\"\") */\n      pop\n      swap1\n      pop\n        /* \"Bloque 4 Remix/J.12-EjemploPractico/ContractA.sol\":1774:1781  success */\n      dup1\n        /* \"Bloque 4 Remix/J.12-EjemploPractico/ContractA.sol\":1766:1801  require(success, \"Transfer failed\") */\n      tag_40\n      jumpi\n      mload(0x40)\n      0x08c379a000000000000000000000000000000000000000000000000000000000\n      dup2\n      mstore\n      0x04\n      add\n      tag_41\n      swap1\n      tag_42\n      jump\t// in\n    tag_41:\n      mload(0x40)\n      dup1\n      swap2\n      sub\n      swap1\n      revert\n    tag_40:\n        /* \"Bloque 4 Remix/J.12-EjemploPractico/ContractA.sol\":1630:1811  {... */\n      pop\n        /* \"Bloque 4 Remix/J.12-EjemploPractico/ContractA.sol\":1583:1811  function withdrawEther(uint256 amount_) public {... */\n      pop\n      jump\t// out\n        /* \"Bloque 4 Remix/J.12-EjemploPractico/ContractA.sol\":217:249  address payable public contratoB */\n    tag_22:\n      0x00\n      0x00\n      swap1\n      sload\n      swap1\n      0x0100\n      exp\n      swap1\n      div\n      0xffffffffffffffffffffffffffffffffffffffff\n      and\n      dup2\n      jump\t// out\n        /* \"Bloque 4 Remix/J.12-EjemploPractico/ContractA.sol\":789:1558  function enviarAEtherAlContratoB(uint256 cantidadAEnviar_) external {... */\n    tag_28:\n        /* \"Bloque 4 Remix/J.12-EjemploPractico/ContractA.sol\":868:886  uint256 currentFee */\n      0x00\n        /* \"Bloque 4 Remix/J.12-EjemploPractico/ContractA.sol\":901:910  contratoD */\n      0x01\n      0x00\n      swap1\n      sload\n      swap1\n      0x0100\n      exp\n      swap1\n      div\n      0xffffffffffffffffffffffffffffffffffffffff\n      and\n        /* \"Bloque 4 Remix/J.12-EjemploPractico/ContractA.sol\":889:918  IDContratoD(contratoD).getFee */\n      0xffffffffffffffffffffffffffffffffffffffff\n      and\n      0xced72f87\n        /* \"Bloque 4 Remix/J.12-EjemploPractico/ContractA.sol\":889:920  IDContratoD(contratoD).getFee() */\n      mload(0x40)\n      dup2\n      0xffffffff\n      and\n      0xe0\n      shl\n      dup2\n      mstore\n      0x04\n      add\n      0x20\n      mload(0x40)\n      dup1\n      dup4\n      sub\n      dup2\n      dup7\n      gas\n      staticcall\n      iszero\n      dup1\n      iszero\n      tag_45\n      jumpi\n      returndatacopy(0x00, 0x00, returndatasize)\n      revert(0x00, returndatasize)\n    tag_45:\n      pop\n      pop\n      pop\n      pop\n      mload(0x40)\n      returndatasize\n      not(0x1f)\n      0x1f\n      dup3\n      add\n      and\n      dup3\n      add\n      dup1\n      0x40\n      mstore\n      pop\n      dup2\n      add\n      swap1\n      tag_46\n      swap2\n      swap1\n      tag_47\n      jump\t// in\n    tag_46:\n        /* \"Bloque 4 Remix/J.12-EjemploPractico/ContractA.sol\":868:920  uint256 currentFee = IDContratoD(contratoD).getFee() */\n      swap1\n      pop\n        /* \"Bloque 4 Remix/J.12-EjemploPractico/ContractA.sol\":963:964  5 */\n      0x05\n        /* \"Bloque 4 Remix/J.12-EjemploPractico/ContractA.sol\":949:959  currentFee */\n      dup2\n        /* \"Bloque 4 Remix/J.12-EjemploPractico/ContractA.sol\":949:964  currentFee <= 5 */\n      gt\n      iszero\n        /* \"Bloque 4 Remix/J.12-EjemploPractico/ContractA.sol\":941:1015  require(currentFee <= 5, \"La Fee es mayor a 5, no se puede enviar Ether.\") */\n      tag_48\n      jumpi\n      mload(0x40)\n      0x08c379a000000000000000000000000000000000000000000000000000000000\n      dup2\n      mstore\n      0x04\n      add\n      tag_49\n      swap1\n      tag_50\n      jump\t// in\n    tag_49:\n      mload(0x40)\n      dup1\n      swap2\n      sub\n      swap1\n      revert\n    tag_48:\n        /* \"Bloque 4 Remix/J.12-EjemploPractico/ContractA.sol\":1028:1044  uint256 balanceA */\n      0x00\n        /* \"Bloque 4 Remix/J.12-EjemploPractico/ContractA.sol\":1047:1068  address(this).balance */\n      selfbalance\n        /* \"Bloque 4 Remix/J.12-EjemploPractico/ContractA.sol\":1028:1068  uint256 balanceA = address(this).balance */\n      swap1\n      pop\n        /* \"Bloque 4 Remix/J.12-EjemploPractico/ContractA.sol\":1331:1340  contratoB */\n      0x00\n      0x00\n      swap1\n      sload\n      swap1\n      0x0100\n      exp\n      swap1\n      div\n      0xffffffffffffffffffffffffffffffffffffffff\n      and\n        /* \"Bloque 4 Remix/J.12-EjemploPractico/ContractA.sol\":1331:1349  contratoB.transfer */\n      0xffffffffffffffffffffffffffffffffffffffff\n      and\n        /* \"Bloque 4 Remix/J.12-EjemploPractico/ContractA.sol\":1331:1367  contratoB.transfer(cantidadAEnviar_) */\n      0x08fc\n        /* \"Bloque 4 Remix/J.12-EjemploPractico/ContractA.sol\":1350:1366  cantidadAEnviar_ */\n      dup5\n        /* \"Bloque 4 Remix/J.12-EjemploPractico/ContractA.sol\":1331:1367  contratoB.transfer(cantidadAEnviar_) */\n      swap1\n      dup2\n      iszero\n      mul\n      swap1\n      mload(0x40)\n      0x00\n      mload(0x40)\n      dup1\n      dup4\n      sub\n      dup2\n      dup6\n      dup9\n      dup9\n      call\n      swap4\n      pop\n      pop\n      pop\n      pop\n      iszero\n      dup1\n      iszero\n      tag_52\n      jumpi\n      returndatacopy(0x00, 0x00, returndatasize)\n      revert(0x00, returndatasize)\n    tag_52:\n      pop\n        /* \"Bloque 4 Remix/J.12-EjemploPractico/ContractA.sol\":1488:1504  cantidadAEnviar_ */\n      dup3\n        /* \"Bloque 4 Remix/J.12-EjemploPractico/ContractA.sol\":1477:1485  balanceA */\n      dup2\n        /* \"Bloque 4 Remix/J.12-EjemploPractico/ContractA.sol\":1477:1504  balanceA - cantidadAEnviar_ */\n      tag_53\n      swap2\n      swap1\n      tag_54\n      jump\t// in\n    tag_53:\n        /* \"Bloque 4 Remix/J.12-EjemploPractico/ContractA.sol\":1452:1473  address(this).balance */\n      selfbalance\n        /* \"Bloque 4 Remix/J.12-EjemploPractico/ContractA.sol\":1452:1504  address(this).balance == balanceA - cantidadAEnviar_ */\n      eq\n        /* \"Bloque 4 Remix/J.12-EjemploPractico/ContractA.sol\":1444:1550  require(address(this).balance == balanceA - cantidadAEnviar_, \"El saldo de A no se redujo correctamente.\") */\n      tag_55\n      jumpi\n      mload(0x40)\n      0x08c379a000000000000000000000000000000000000000000000000000000000\n      dup2\n      mstore\n      0x04\n      add\n      tag_56\n      swap1\n      tag_57\n      jump\t// in\n    tag_56:\n      mload(0x40)\n      dup1\n      swap2\n      sub\n      swap1\n      revert\n    tag_55:\n        /* \"Bloque 4 Remix/J.12-EjemploPractico/ContractA.sol\":857:1558  {... */\n      pop\n      pop\n        /* \"Bloque 4 Remix/J.12-EjemploPractico/ContractA.sol\":789:1558  function enviarAEtherAlContratoB(uint256 cantidadAEnviar_) external {... */\n      pop\n      jump\t// out\n        /* \"Bloque 4 Remix/J.12-EjemploPractico/ContractA.sol\":287:305  uint256 public fee */\n    tag_31:\n      sload(0x02)\n      dup2\n      jump\t// out\n        /* \"#utility.yul\":7:133   */\n    tag_58:\n        /* \"#utility.yul\":44:51   */\n      0x00\n        /* \"#utility.yul\":84:126   */\n      0xffffffffffffffffffffffffffffffffffffffff\n        /* \"#utility.yul\":77:82   */\n      dup3\n        /* \"#utility.yul\":73:127   */\n      and\n        /* \"#utility.yul\":62:127   */\n      swap1\n      pop\n        /* \"#utility.yul\":7:133   */\n      swap2\n      swap1\n      pop\n      jump\t// out\n        /* \"#utility.yul\":139:235   */\n    tag_59:\n        /* \"#utility.yul\":176:183   */\n      0x00\n        /* \"#utility.yul\":205:229   */\n      tag_85\n        /* \"#utility.yul\":223:228   */\n      dup3\n        /* \"#utility.yul\":205:229   */\n      tag_58\n      jump\t// in\n    tag_85:\n        /* \"#utility.yul\":194:229   */\n      swap1\n      pop\n        /* \"#utility.yul\":139:235   */\n      swap2\n      swap1\n      pop\n      jump\t// out\n        /* \"#utility.yul\":241:359   */\n    tag_60:\n        /* \"#utility.yul\":328:352   */\n      tag_87\n        /* \"#utility.yul\":346:351   */\n      dup2\n        /* \"#utility.yul\":328:352   */\n      tag_59\n      jump\t// in\n    tag_87:\n        /* \"#utility.yul\":323:326   */\n      dup3\n        /* \"#utility.yul\":316:353   */\n      mstore\n        /* \"#utility.yul\":241:359   */\n      pop\n      pop\n      jump\t// out\n        /* \"#utility.yul\":365:587   */\n    tag_14:\n        /* \"#utility.yul\":458:462   */\n      0x00\n        /* \"#utility.yul\":496:498   */\n      0x20\n        /* \"#utility.yul\":485:494   */\n      dup3\n        /* \"#utility.yul\":481:499   */\n      add\n        /* \"#utility.yul\":473:499   */\n      swap1\n      pop\n        /* \"#utility.yul\":509:580   */\n      tag_89\n        /* \"#utility.yul\":577:578   */\n      0x00\n        /* \"#utility.yul\":566:575   */\n      dup4\n        /* \"#utility.yul\":562:579   */\n      add\n        /* \"#utility.yul\":553:559   */\n      dup5\n        /* \"#utility.yul\":509:580   */\n      tag_60\n      jump\t// in\n    tag_89:\n        /* \"#utility.yul\":365:587   */\n      swap3\n      swap2\n      pop\n      pop\n      jump\t// out\n        /* \"#utility.yul\":674:791   */\n    tag_62:\n        /* \"#utility.yul\":783:784   */\n      0x00\n        /* \"#utility.yul\":780:781   */\n      0x00\n        /* \"#utility.yul\":773:785   */\n      revert\n        /* \"#utility.yul\":920:997   */\n    tag_64:\n        /* \"#utility.yul\":957:964   */\n      0x00\n        /* \"#utility.yul\":986:991   */\n      dup2\n        /* \"#utility.yul\":975:991   */\n      swap1\n      pop\n        /* \"#utility.yul\":920:997   */\n      swap2\n      swap1\n      pop\n      jump\t// out\n        /* \"#utility.yul\":1003:1125   */\n    tag_65:\n        /* \"#utility.yul\":1076:1100   */\n      tag_95\n        /* \"#utility.yul\":1094:1099   */\n      dup2\n        /* \"#utility.yul\":1076:1100   */\n      tag_64\n      jump\t// in\n    tag_95:\n        /* \"#utility.yul\":1069:1074   */\n      dup2\n        /* \"#utility.yul\":1066:1101   */\n      eq\n        /* \"#utility.yul\":1056:1119   */\n      tag_96\n      jumpi\n        /* \"#utility.yul\":1115:1116   */\n      0x00\n        /* \"#utility.yul\":1112:1113   */\n      0x00\n        /* \"#utility.yul\":1105:1117   */\n      revert\n        /* \"#utility.yul\":1056:1119   */\n    tag_96:\n        /* \"#utility.yul\":1003:1125   */\n      pop\n      jump\t// out\n        /* \"#utility.yul\":1131:1270   */\n    tag_66:\n        /* \"#utility.yul\":1177:1182   */\n      0x00\n        /* \"#utility.yul\":1215:1221   */\n      dup2\n        /* \"#utility.yul\":1202:1222   */\n      calldataload\n        /* \"#utility.yul\":1193:1222   */\n      swap1\n      pop\n        /* \"#utility.yul\":1231:1264   */\n      tag_98\n        /* \"#utility.yul\":1258:1263   */\n      dup2\n        /* \"#utility.yul\":1231:1264   */\n      tag_65\n      jump\t// in\n    tag_98:\n        /* \"#utility.yul\":1131:1270   */\n      swap3\n      swap2\n      pop\n      pop\n      jump\t// out\n        /* \"#utility.yul\":1276:1605   */\n    tag_18:\n        /* \"#utility.yul\":1335:1341   */\n      0x00\n        /* \"#utility.yul\":1384:1386   */\n      0x20\n        /* \"#utility.yul\":1372:1381   */\n      dup3\n        /* \"#utility.yul\":1363:1370   */\n      dup5\n        /* \"#utility.yul\":1359:1382   */\n      sub\n        /* \"#utility.yul\":1355:1387   */\n      slt\n        /* \"#utility.yul\":1352:1471   */\n      iszero\n      tag_100\n      jumpi\n        /* \"#utility.yul\":1390:1469   */\n      tag_101\n      tag_62\n      jump\t// in\n    tag_101:\n        /* \"#utility.yul\":1352:1471   */\n    tag_100:\n        /* \"#utility.yul\":1510:1511   */\n      0x00\n        /* \"#utility.yul\":1535:1588   */\n      tag_102\n        /* \"#utility.yul\":1580:1587   */\n      dup5\n        /* \"#utility.yul\":1571:1577   */\n      dup3\n        /* \"#utility.yul\":1560:1569   */\n      dup6\n        /* \"#utility.yul\":1556:1578   */\n      add\n        /* \"#utility.yul\":1535:1588   */\n      tag_66\n      jump\t// in\n    tag_102:\n        /* \"#utility.yul\":1525:1588   */\n      swap2\n      pop\n        /* \"#utility.yul\":1481:1598   */\n      pop\n        /* \"#utility.yul\":1276:1605   */\n      swap3\n      swap2\n      pop\n      pop\n      jump\t// out\n        /* \"#utility.yul\":1611:1715   */\n    tag_67:\n        /* \"#utility.yul\":1656:1663   */\n      0x00\n        /* \"#utility.yul\":1685:1709   */\n      tag_104\n        /* \"#utility.yul\":1703:1708   */\n      dup3\n        /* \"#utility.yul\":1685:1709   */\n      tag_58\n      jump\t// in\n    tag_104:\n        /* \"#utility.yul\":1674:1709   */\n      swap1\n      pop\n        /* \"#utility.yul\":1611:1715   */\n      swap2\n      swap1\n      pop\n      jump\t// out\n        /* \"#utility.yul\":1721:1863   */\n    tag_68:\n        /* \"#utility.yul\":1824:1856   */\n      tag_106\n        /* \"#utility.yul\":1850:1855   */\n      dup2\n        /* \"#utility.yul\":1824:1856   */\n      tag_67\n      jump\t// in\n    tag_106:\n        /* \"#utility.yul\":1819:1822   */\n      dup3\n        /* \"#utility.yul\":1812:1857   */\n      mstore\n        /* \"#utility.yul\":1721:1863   */\n      pop\n      pop\n      jump\t// out\n        /* \"#utility.yul\":1869:2123   */\n    tag_24:\n        /* \"#utility.yul\":1978:1982   */\n      0x00\n        /* \"#utility.yul\":2016:2018   */\n      0x20\n        /* \"#utility.yul\":2005:2014   */\n      dup3\n        /* \"#utility.yul\":2001:2019   */\n      add\n        /* \"#utility.yul\":1993:2019   */\n      swap1\n      pop\n        /* \"#utility.yul\":2029:2116   */\n      tag_108\n        /* \"#utility.yul\":2113:2114   */\n      0x00\n        /* \"#utility.yul\":2102:2111   */\n      dup4\n        /* \"#utility.yul\":2098:2115   */\n      add\n        /* \"#utility.yul\":2089:2095   */\n      dup5\n        /* \"#utility.yul\":2029:2116   */\n      tag_68\n      jump\t// in\n    tag_108:\n        /* \"#utility.yul\":1869:2123   */\n      swap3\n      swap2\n      pop\n      pop\n      jump\t// out\n        /* \"#utility.yul\":2129:2247   */\n    tag_69:\n        /* \"#utility.yul\":2216:2240   */\n      tag_110\n        /* \"#utility.yul\":2234:2239   */\n      dup2\n        /* \"#utility.yul\":2216:2240   */\n      tag_64\n      jump\t// in\n    tag_110:\n        /* \"#utility.yul\":2211:2214   */\n      dup3\n        /* \"#utility.yul\":2204:2241   */\n      mstore\n        /* \"#utility.yul\":2129:2247   */\n      pop\n      pop\n      jump\t// out\n        /* \"#utility.yul\":2253:2475   */\n    tag_33:\n        /* \"#utility.yul\":2346:2350   */\n      0x00\n        /* \"#utility.yul\":2384:2386   */\n      0x20\n        /* \"#utility.yul\":2373:2382   */\n      dup3\n        /* \"#utility.yul\":2369:2387   */\n      add\n        /* \"#utility.yul\":2361:2387   */\n      swap1\n      pop\n        /* \"#utility.yul\":2397:2468   */\n      tag_112\n        /* \"#utility.yul\":2465:2466   */\n      0x00\n        /* \"#utility.yul\":2454:2463   */\n      dup4\n        /* \"#utility.yul\":2450:2467   */\n      add\n        /* \"#utility.yul\":2441:2447   */\n      dup5\n        /* \"#utility.yul\":2397:2468   */\n      tag_69\n      jump\t// in\n    tag_112:\n        /* \"#utility.yul\":2253:2475   */\n      swap3\n      swap2\n      pop\n      pop\n      jump\t// out\n        /* \"#utility.yul\":2481:2628   */\n    tag_70:\n        /* \"#utility.yul\":2582:2593   */\n      0x00\n        /* \"#utility.yul\":2619:2622   */\n      dup2\n        /* \"#utility.yul\":2604:2622   */\n      swap1\n      pop\n        /* \"#utility.yul\":2481:2628   */\n      swap3\n      swap2\n      pop\n      pop\n      jump\t// out\n        /* \"#utility.yul\":2634:2748   */\n    tag_71:\n      pop\n      jump\t// out\n        /* \"#utility.yul\":2754:3152   */\n    tag_72:\n        /* \"#utility.yul\":2913:2916   */\n      0x00\n        /* \"#utility.yul\":2934:3017   */\n      tag_116\n        /* \"#utility.yul\":3015:3016   */\n      0x00\n        /* \"#utility.yul\":3010:3013   */\n      dup4\n        /* \"#utility.yul\":2934:3017   */\n      tag_70\n      jump\t// in\n    tag_116:\n        /* \"#utility.yul\":2927:3017   */\n      swap2\n      pop\n        /* \"#utility.yul\":3026:3119   */\n      tag_117\n        /* \"#utility.yul\":3115:3118   */\n      dup3\n        /* \"#utility.yul\":3026:3119   */\n      tag_71\n      jump\t// in\n    tag_117:\n        /* \"#utility.yul\":3144:3145   */\n      0x00\n        /* \"#utility.yul\":3139:3142   */\n      dup3\n        /* \"#utility.yul\":3135:3146   */\n      add\n        /* \"#utility.yul\":3128:3146   */\n      swap1\n      pop\n        /* \"#utility.yul\":2754:3152   */\n      swap2\n      swap1\n      pop\n      jump\t// out\n        /* \"#utility.yul\":3158:3537   */\n    tag_36:\n        /* \"#utility.yul\":3342:3345   */\n      0x00\n        /* \"#utility.yul\":3364:3511   */\n      tag_119\n        /* \"#utility.yul\":3507:3510   */\n      dup3\n        /* \"#utility.yul\":3364:3511   */\n      tag_72\n      jump\t// in\n    tag_119:\n        /* \"#utility.yul\":3357:3511   */\n      swap2\n      pop\n        /* \"#utility.yul\":3528:3531   */\n      dup2\n        /* \"#utility.yul\":3521:3531   */\n      swap1\n      pop\n        /* \"#utility.yul\":3158:3537   */\n      swap2\n      swap1\n      pop\n      jump\t// out\n        /* \"#utility.yul\":3543:3712   */\n    tag_73:\n        /* \"#utility.yul\":3627:3638   */\n      0x00\n        /* \"#utility.yul\":3661:3667   */\n      dup3\n        /* \"#utility.yul\":3656:3659   */\n      dup3\n        /* \"#utility.yul\":3649:3668   */\n      mstore\n        /* \"#utility.yul\":3701:3705   */\n      0x20\n        /* \"#utility.yul\":3696:3699   */\n      dup3\n        /* \"#utility.yul\":3692:3706   */\n      add\n        /* \"#utility.yul\":3677:3706   */\n      swap1\n      pop\n        /* \"#utility.yul\":3543:3712   */\n      swap3\n      swap2\n      pop\n      pop\n      jump\t// out\n        /* \"#utility.yul\":3718:3883   */\n    tag_74:\n        /* \"#utility.yul\":3858:3875   */\n      0x5472616e73666572206661696c65640000000000000000000000000000000000\n        /* \"#utility.yul\":3854:3855   */\n      0x00\n        /* \"#utility.yul\":3846:3852   */\n      dup3\n        /* \"#utility.yul\":3842:3856   */\n      add\n        /* \"#utility.yul\":3835:3876   */\n      mstore\n        /* \"#utility.yul\":3718:3883   */\n      pop\n      jump\t// out\n        /* \"#utility.yul\":3889:4255   */\n    tag_75:\n        /* \"#utility.yul\":4031:4034   */\n      0x00\n        /* \"#utility.yul\":4052:4119   */\n      tag_123\n        /* \"#utility.yul\":4116:4118   */\n      0x0f\n        /* \"#utility.yul\":4111:4114   */\n      dup4\n        /* \"#utility.yul\":4052:4119   */\n      tag_73\n      jump\t// in\n    tag_123:\n        /* \"#utility.yul\":4045:4119   */\n      swap2\n      pop\n        /* \"#utility.yul\":4128:4221   */\n      tag_124\n        /* \"#utility.yul\":4217:4220   */\n      dup3\n        /* \"#utility.yul\":4128:4221   */\n      tag_74\n      jump\t// in\n    tag_124:\n        /* \"#utility.yul\":4246:4248   */\n      0x20\n        /* \"#utility.yul\":4241:4244   */\n      dup3\n        /* \"#utility.yul\":4237:4249   */\n      add\n        /* \"#utility.yul\":4230:4249   */\n      swap1\n      pop\n        /* \"#utility.yul\":3889:4255   */\n      swap2\n      swap1\n      pop\n      jump\t// out\n        /* \"#utility.yul\":4261:4680   */\n    tag_42:\n        /* \"#utility.yul\":4427:4431   */\n      0x00\n        /* \"#utility.yul\":4465:4467   */\n      0x20\n        /* \"#utility.yul\":4454:4463   */\n      dup3\n        /* \"#utility.yul\":4450:4468   */\n      add\n        /* \"#utility.yul\":4442:4468   */\n      swap1\n      pop\n        /* \"#utility.yul\":4514:4523   */\n      dup2\n        /* \"#utility.yul\":4508:4512   */\n      dup2\n        /* \"#utility.yul\":4504:4524   */\n      sub\n        /* \"#utility.yul\":4500:4501   */\n      0x00\n        /* \"#utility.yul\":4489:4498   */\n      dup4\n        /* \"#utility.yul\":4485:4502   */\n      add\n        /* \"#utility.yul\":4478:4525   */\n      mstore\n        /* \"#utility.yul\":4542:4673   */\n      tag_126\n        /* \"#utility.yul\":4668:4672   */\n      dup2\n        /* \"#utility.yul\":4542:4673   */\n      tag_75\n      jump\t// in\n    tag_126:\n        /* \"#utility.yul\":4534:4673   */\n      swap1\n      pop\n        /* \"#utility.yul\":4261:4680   */\n      swap2\n      swap1\n      pop\n      jump\t// out\n        /* \"#utility.yul\":4686:4829   */\n    tag_76:\n        /* \"#utility.yul\":4743:4748   */\n      0x00\n        /* \"#utility.yul\":4774:4780   */\n      dup2\n        /* \"#utility.yul\":4768:4781   */\n      mload\n        /* \"#utility.yul\":4759:4781   */\n      swap1\n      pop\n        /* \"#utility.yul\":4790:4823   */\n      tag_128\n        /* \"#utility.yul\":4817:4822   */\n      dup2\n        /* \"#utility.yul\":4790:4823   */\n      tag_65\n      jump\t// in\n    tag_128:\n        /* \"#utility.yul\":4686:4829   */\n      swap3\n      swap2\n      pop\n      pop\n      jump\t// out\n        /* \"#utility.yul\":4835:5186   */\n    tag_47:\n        /* \"#utility.yul\":4905:4911   */\n      0x00\n        /* \"#utility.yul\":4954:4956   */\n      0x20\n        /* \"#utility.yul\":4942:4951   */\n      dup3\n        /* \"#utility.yul\":4933:4940   */\n      dup5\n        /* \"#utility.yul\":4929:4952   */\n      sub\n        /* \"#utility.yul\":4925:4957   */\n      slt\n        /* \"#utility.yul\":4922:5041   */\n      iszero\n      tag_130\n      jumpi\n        /* \"#utility.yul\":4960:5039   */\n      tag_131\n      tag_62\n      jump\t// in\n    tag_131:\n        /* \"#utility.yul\":4922:5041   */\n    tag_130:\n        /* \"#utility.yul\":5080:5081   */\n      0x00\n        /* \"#utility.yul\":5105:5169   */\n      tag_132\n        /* \"#utility.yul\":5161:5168   */\n      dup5\n        /* \"#utility.yul\":5152:5158   */\n      dup3\n        /* \"#utility.yul\":5141:5150   */\n      dup6\n        /* \"#utility.yul\":5137:5159   */\n      add\n        /* \"#utility.yul\":5105:5169   */\n      tag_76\n      jump\t// in\n    tag_132:\n        /* \"#utility.yul\":5095:5169   */\n      swap2\n      pop\n        /* \"#utility.yul\":5051:5179   */\n      pop\n        /* \"#utility.yul\":4835:5186   */\n      swap3\n      swap2\n      pop\n      pop\n      jump\t// out\n        /* \"#utility.yul\":5192:5425   */\n    tag_77:\n        /* \"#utility.yul\":5332:5366   */\n      0x4c6120466565206573206d61796f72206120352c206e6f207365207075656465\n        /* \"#utility.yul\":5328:5329   */\n      0x00\n        /* \"#utility.yul\":5320:5326   */\n      dup3\n        /* \"#utility.yul\":5316:5330   */\n      add\n        /* \"#utility.yul\":5309:5367   */\n      mstore\n        /* \"#utility.yul\":5401:5417   */\n      0x20656e766961722045746865722e000000000000000000000000000000000000\n        /* \"#utility.yul\":5396:5398   */\n      0x20\n        /* \"#utility.yul\":5388:5394   */\n      dup3\n        /* \"#utility.yul\":5384:5399   */\n      add\n        /* \"#utility.yul\":5377:5418   */\n      mstore\n        /* \"#utility.yul\":5192:5425   */\n      pop\n      jump\t// out\n        /* \"#utility.yul\":5431:5797   */\n    tag_78:\n        /* \"#utility.yul\":5573:5576   */\n      0x00\n        /* \"#utility.yul\":5594:5661   */\n      tag_135\n        /* \"#utility.yul\":5658:5660   */\n      0x2e\n        /* \"#utility.yul\":5653:5656   */\n      dup4\n        /* \"#utility.yul\":5594:5661   */\n      tag_73\n      jump\t// in\n    tag_135:\n        /* \"#utility.yul\":5587:5661   */\n      swap2\n      pop\n        /* \"#utility.yul\":5670:5763   */\n      tag_136\n        /* \"#utility.yul\":5759:5762   */\n      dup3\n        /* \"#utility.yul\":5670:5763   */\n      tag_77\n      jump\t// in\n    tag_136:\n        /* \"#utility.yul\":5788:5790   */\n      0x40\n        /* \"#utility.yul\":5783:5786   */\n      dup3\n        /* \"#utility.yul\":5779:5791   */\n      add\n        /* \"#utility.yul\":5772:5791   */\n      swap1\n      pop\n        /* \"#utility.yul\":5431:5797   */\n      swap2\n      swap1\n      pop\n      jump\t// out\n        /* \"#utility.yul\":5803:6222   */\n    tag_50:\n        /* \"#utility.yul\":5969:5973   */\n      0x00\n        /* \"#utility.yul\":6007:6009   */\n      0x20\n        /* \"#utility.yul\":5996:6005   */\n      dup3\n        /* \"#utility.yul\":5992:6010   */\n      add\n        /* \"#utility.yul\":5984:6010   */\n      swap1\n      pop\n        /* \"#utility.yul\":6056:6065   */\n      dup2\n        /* \"#utility.yul\":6050:6054   */\n      dup2\n        /* \"#utility.yul\":6046:6066   */\n      sub\n        /* \"#utility.yul\":6042:6043   */\n      0x00\n        /* \"#utility.yul\":6031:6040   */\n      dup4\n        /* \"#utility.yul\":6027:6044   */\n      add\n        /* \"#utility.yul\":6020:6067   */\n      mstore\n        /* \"#utility.yul\":6084:6215   */\n      tag_138\n        /* \"#utility.yul\":6210:6214   */\n      dup2\n        /* \"#utility.yul\":6084:6215   */\n      tag_78\n      jump\t// in\n    tag_138:\n        /* \"#utility.yul\":6076:6215   */\n      swap1\n      pop\n        /* \"#utility.yul\":5803:6222   */\n      swap2\n      swap1\n      pop\n      jump\t// out\n        /* \"#utility.yul\":6228:6408   */\n    tag_79:\n        /* \"#utility.yul\":6276:6353   */\n      0x4e487b7100000000000000000000000000000000000000000000000000000000\n        /* \"#utility.yul\":6273:6274   */\n      0x00\n        /* \"#utility.yul\":6266:6354   */\n      mstore\n        /* \"#utility.yul\":6373:6377   */\n      0x11\n        /* \"#utility.yul\":6370:6371   */\n      0x04\n        /* \"#utility.yul\":6363:6378   */\n      mstore\n        /* \"#utility.yul\":6397:6401   */\n      0x24\n        /* \"#utility.yul\":6394:6395   */\n      0x00\n        /* \"#utility.yul\":6387:6402   */\n      revert\n        /* \"#utility.yul\":6414:6608   */\n    tag_54:\n        /* \"#utility.yul\":6454:6458   */\n      0x00\n        /* \"#utility.yul\":6474:6494   */\n      tag_141\n        /* \"#utility.yul\":6492:6493   */\n      dup3\n        /* \"#utility.yul\":6474:6494   */\n      tag_64\n      jump\t// in\n    tag_141:\n        /* \"#utility.yul\":6469:6494   */\n      swap2\n      pop\n        /* \"#utility.yul\":6508:6528   */\n      tag_142\n        /* \"#utility.yul\":6526:6527   */\n      dup4\n        /* \"#utility.yul\":6508:6528   */\n      tag_64\n      jump\t// in\n    tag_142:\n        /* \"#utility.yul\":6503:6528   */\n      swap3\n      pop\n        /* \"#utility.yul\":6552:6553   */\n      dup3\n        /* \"#utility.yul\":6549:6550   */\n      dup3\n        /* \"#utility.yul\":6545:6554   */\n      sub\n        /* \"#utility.yul\":6537:6554   */\n      swap1\n      pop\n        /* \"#utility.yul\":6576:6577   */\n      dup2\n        /* \"#utility.yul\":6570:6574   */\n      dup2\n        /* \"#utility.yul\":6567:6578   */\n      gt\n        /* \"#utility.yul\":6564:6601   */\n      iszero\n      tag_143\n      jumpi\n        /* \"#utility.yul\":6581:6599   */\n      tag_144\n      tag_79\n      jump\t// in\n    tag_144:\n        /* \"#utility.yul\":6564:6601   */\n    tag_143:\n        /* \"#utility.yul\":6414:6608   */\n      swap3\n      swap2\n      pop\n      pop\n      jump\t// out\n        /* \"#utility.yul\":6614:6842   */\n    tag_80:\n        /* \"#utility.yul\":6754:6788   */\n      0x456c2073616c646f2064652041206e6f20736520726564756a6f20636f727265\n        /* \"#utility.yul\":6750:6751   */\n      0x00\n        /* \"#utility.yul\":6742:6748   */\n      dup3\n        /* \"#utility.yul\":6738:6752   */\n      add\n        /* \"#utility.yul\":6731:6789   */\n      mstore\n        /* \"#utility.yul\":6823:6834   */\n      0x6374616d656e74652e0000000000000000000000000000000000000000000000\n        /* \"#utility.yul\":6818:6820   */\n      0x20\n        /* \"#utility.yul\":6810:6816   */\n      dup3\n        /* \"#utility.yul\":6806:6821   */\n      add\n        /* \"#utility.yul\":6799:6835   */\n      mstore\n        /* \"#utility.yul\":6614:6842   */\n      pop\n      jump\t// out\n        /* \"#utility.yul\":6848:7214   */\n    tag_81:\n        /* \"#utility.yul\":6990:6993   */\n      0x00\n        /* \"#utility.yul\":7011:7078   */\n      tag_147\n        /* \"#utility.yul\":7075:7077   */\n      0x29\n        /* \"#utility.yul\":7070:7073   */\n      dup4\n        /* \"#utility.yul\":7011:7078   */\n      tag_73\n      jump\t// in\n    tag_147:\n        /* \"#utility.yul\":7004:7078   */\n      swap2\n      pop\n        /* \"#utility.yul\":7087:7180   */\n      tag_148\n        /* \"#utility.yul\":7176:7179   */\n      dup3\n        /* \"#utility.yul\":7087:7180   */\n      tag_80\n      jump\t// in\n    tag_148:\n        /* \"#utility.yul\":7205:7207   */\n      0x40\n        /* \"#utility.yul\":7200:7203   */\n      dup3\n        /* \"#utility.yul\":7196:7208   */\n      add\n        /* \"#utility.yul\":7189:7208   */\n      swap1\n      pop\n        /* \"#utility.yul\":6848:7214   */\n      swap2\n      swap1\n      pop\n      jump\t// out\n        /* \"#utility.yul\":7220:7639   */\n    tag_57:\n        /* \"#utility.yul\":7386:7390   */\n      0x00\n        /* \"#utility.yul\":7424:7426   */\n      0x20\n        /* \"#utility.yul\":7413:7422   */\n      dup3\n        /* \"#utility.yul\":7409:7427   */\n      add\n        /* \"#utility.yul\":7401:7427   */\n      swap1\n      pop\n        /* \"#utility.yul\":7473:7482   */\n      dup2\n        /* \"#utility.yul\":7467:7471   */\n      dup2\n        /* \"#utility.yul\":7463:7483   */\n      sub\n        /* \"#utility.yul\":7459:7460   */\n      0x00\n        /* \"#utility.yul\":7448:7457   */\n      dup4\n        /* \"#utility.yul\":7444:7461   */\n      add\n        /* \"#utility.yul\":7437:7484   */\n      mstore\n        /* \"#utility.yul\":7501:7632   */\n      tag_150\n        /* \"#utility.yul\":7627:7631   */\n      dup2\n        /* \"#utility.yul\":7501:7632   */\n      tag_81\n      jump\t// in\n    tag_150:\n        /* \"#utility.yul\":7493:7632   */\n      swap1\n      pop\n        /* \"#utility.yul\":7220:7639   */\n      swap2\n      swap1\n      pop\n      jump\t// out\n\n    auxdata: 0xa2646970667358221220427c297fb7386e871ddc19133c89d74717f9d306d57b3417a32a954fae9f07e264736f6c634300081c0033\n}\n",
				"bytecode": {
					"linkReferences": {},
					"object": "608060405234801561000f575f5ffd5b506040516108d53803806108d583398181016040528101906100319190610115565b815f5f6101000a81548173ffffffffffffffffffffffffffffffffffffffff021916908373ffffffffffffffffffffffffffffffffffffffff1602179055508060015f6101000a81548173ffffffffffffffffffffffffffffffffffffffff021916908373ffffffffffffffffffffffffffffffffffffffff1602179055505050610153565b5f5ffd5b5f73ffffffffffffffffffffffffffffffffffffffff82169050919050565b5f6100e4826100bb565b9050919050565b6100f4816100da565b81146100fe575f5ffd5b50565b5f8151905061010f816100eb565b92915050565b5f5f6040838503121561012b5761012a6100b7565b5b5f61013885828601610101565b925050602061014985828601610101565b9150509250929050565b610775806101605f395ff3fe60806040526004361061004d575f3560e01c806305c3c87c146100585780633bed33ce146100825780633f4ee79f146100aa5780639b690fb2146100d4578063ddca3f43146100fc57610054565b3661005457005b5f5ffd5b348015610063575f5ffd5b5061006c610126565b60405161007991906103ef565b60405180910390f35b34801561008d575f5ffd5b506100a860048036038101906100a3919061043f565b61014b565b005b3480156100b5575f5ffd5b506100be6101f7565b6040516100cb919061048a565b60405180910390f35b3480156100df575f5ffd5b506100fa60048036038101906100f5919061043f565b61021b565b005b348015610107575f5ffd5b506101106103aa565b60405161011d91906104b2565b60405180910390f35b60015f9054906101000a900473ffffffffffffffffffffffffffffffffffffffff1681565b5f3373ffffffffffffffffffffffffffffffffffffffff1682604051610170906104f8565b5f6040518083038185875af1925050503d805f81146101aa576040519150601f19603f3d011682016040523d82523d5f602084013e6101af565b606091505b50509050806101f3576040517f08c379a00000000000000000000000000000000000000000000000000000000081526004016101ea90610566565b60405180910390fd5b5050565b5f5f9054906101000a900473ffffffffffffffffffffffffffffffffffffffff1681565b5f60015f9054906101000a900473ffffffffffffffffffffffffffffffffffffffff1673ffffffffffffffffffffffffffffffffffffffff1663ced72f876040518163ffffffff1660e01b8152600401602060405180830381865afa158015610286573d5f5f3e3d5ffd5b505050506040513d601f19601f820116820180604052508101906102aa9190610598565b905060058111156102f0576040517f08c379a00000000000000000000000000000000000000000000000000000000081526004016102e790610633565b60405180910390fd5b5f4790505f5f9054906101000a900473ffffffffffffffffffffffffffffffffffffffff1673ffffffffffffffffffffffffffffffffffffffff166108fc8490811502906040515f60405180830381858888f19350505050158015610357573d5f5f3e3d5ffd5b508281610364919061067e565b47146103a5576040517f08c379a000000000000000000000000000000000000000000000000000000000815260040161039c90610721565b60405180910390fd5b505050565b60025481565b5f73ffffffffffffffffffffffffffffffffffffffff82169050919050565b5f6103d9826103b0565b9050919050565b6103e9816103cf565b82525050565b5f6020820190506104025f8301846103e0565b92915050565b5f5ffd5b5f819050919050565b61041e8161040c565b8114610428575f5ffd5b50565b5f8135905061043981610415565b92915050565b5f6020828403121561045457610453610408565b5b5f6104618482850161042b565b91505092915050565b5f610474826103b0565b9050919050565b6104848161046a565b82525050565b5f60208201905061049d5f83018461047b565b92915050565b6104ac8161040c565b82525050565b5f6020820190506104c55f8301846104a3565b92915050565b5f81905092915050565b50565b5f6104e35f836104cb565b91506104ee826104d5565b5f82019050919050565b5f610502826104d8565b9150819050919050565b5f82825260208201905092915050565b7f5472616e73666572206661696c656400000000000000000000000000000000005f82015250565b5f610550600f8361050c565b915061055b8261051c565b602082019050919050565b5f6020820190508181035f83015261057d81610544565b9050919050565b5f8151905061059281610415565b92915050565b5f602082840312156105ad576105ac610408565b5b5f6105ba84828501610584565b91505092915050565b7f4c6120466565206573206d61796f72206120352c206e6f2073652070756564655f8201527f20656e766961722045746865722e000000000000000000000000000000000000602082015250565b5f61061d602e8361050c565b9150610628826105c3565b604082019050919050565b5f6020820190508181035f83015261064a81610611565b9050919050565b7f4e487b71000000000000000000000000000000000000000000000000000000005f52601160045260245ffd5b5f6106888261040c565b91506106938361040c565b92508282039050818111156106ab576106aa610651565b5b92915050565b7f456c2073616c646f2064652041206e6f20736520726564756a6f20636f7272655f8201527f6374616d656e74652e0000000000000000000000000000000000000000000000602082015250565b5f61070b60298361050c565b9150610716826106b1565b604082019050919050565b5f6020820190508181035f830152610738816106ff565b905091905056fea2646970667358221220427c297fb7386e871ddc19133c89d74717f9d306d57b3417a32a954fae9f07e264736f6c634300081c0033",
					"opcodes": "PUSH1 0x80 PUSH1 0x40 MSTORE CALLVALUE DUP1 ISZERO PUSH2 0xF JUMPI PUSH0 PUSH0 REVERT JUMPDEST POP PUSH1 0x40 MLOAD PUSH2 0x8D5 CODESIZE SUB DUP1 PUSH2 0x8D5 DUP4 CODECOPY DUP2 DUP2 ADD PUSH1 0x40 MSTORE DUP2 ADD SWAP1 PUSH2 0x31 SWAP2 SWAP1 PUSH2 0x115 JUMP JUMPDEST DUP2 PUSH0 PUSH0 PUSH2 0x100 EXP DUP2 SLOAD DUP2 PUSH20 0xFFFFFFFFFFFFFFFFFFFFFFFFFFFFFFFFFFFFFFFF MUL NOT AND SWAP1 DUP4 PUSH20 0xFFFFFFFFFFFFFFFFFFFFFFFFFFFFFFFFFFFFFFFF AND MUL OR SWAP1 SSTORE POP DUP1 PUSH1 0x1 PUSH0 PUSH2 0x100 EXP DUP2 SLOAD DUP2 PUSH20 0xFFFFFFFFFFFFFFFFFFFFFFFFFFFFFFFFFFFFFFFF MUL NOT AND SWAP1 DUP4 PUSH20 0xFFFFFFFFFFFFFFFFFFFFFFFFFFFFFFFFFFFFFFFF AND MUL OR SWAP1 SSTORE POP POP POP PUSH2 0x153 JUMP JUMPDEST PUSH0 PUSH0 REVERT JUMPDEST PUSH0 PUSH20 0xFFFFFFFFFFFFFFFFFFFFFFFFFFFFFFFFFFFFFFFF DUP3 AND SWAP1 POP SWAP2 SWAP1 POP JUMP JUMPDEST PUSH0 PUSH2 0xE4 DUP3 PUSH2 0xBB JUMP JUMPDEST SWAP1 POP SWAP2 SWAP1 POP JUMP JUMPDEST PUSH2 0xF4 DUP2 PUSH2 0xDA JUMP JUMPDEST DUP2 EQ PUSH2 0xFE JUMPI PUSH0 PUSH0 REVERT JUMPDEST POP JUMP JUMPDEST PUSH0 DUP2 MLOAD SWAP1 POP PUSH2 0x10F DUP2 PUSH2 0xEB JUMP JUMPDEST SWAP3 SWAP2 POP POP JUMP JUMPDEST PUSH0 PUSH0 PUSH1 0x40 DUP4 DUP6 SUB SLT ISZERO PUSH2 0x12B JUMPI PUSH2 0x12A PUSH2 0xB7 JUMP JUMPDEST JUMPDEST PUSH0 PUSH2 0x138 DUP6 DUP3 DUP7 ADD PUSH2 0x101 JUMP JUMPDEST SWAP3 POP POP PUSH1 0x20 PUSH2 0x149 DUP6 DUP3 DUP7 ADD PUSH2 0x101 JUMP JUMPDEST SWAP2 POP POP SWAP3 POP SWAP3 SWAP1 POP JUMP JUMPDEST PUSH2 0x775 DUP1 PUSH2 0x160 PUSH0 CODECOPY PUSH0 RETURN INVALID PUSH1 0x80 PUSH1 0x40 MSTORE PUSH1 0x4 CALLDATASIZE LT PUSH2 0x4D JUMPI PUSH0 CALLDATALOAD PUSH1 0xE0 SHR DUP1 PUSH4 0x5C3C87C EQ PUSH2 0x58 JUMPI DUP1 PUSH4 0x3BED33CE EQ PUSH2 0x82 JUMPI DUP1 PUSH4 0x3F4EE79F EQ PUSH2 0xAA JUMPI DUP1 PUSH4 0x9B690FB2 EQ PUSH2 0xD4 JUMPI DUP1 PUSH4 0xDDCA3F43 EQ PUSH2 0xFC JUMPI PUSH2 0x54 JUMP JUMPDEST CALLDATASIZE PUSH2 0x54 JUMPI STOP JUMPDEST PUSH0 PUSH0 REVERT JUMPDEST CALLVALUE DUP1 ISZERO PUSH2 0x63 JUMPI PUSH0 PUSH0 REVERT JUMPDEST POP PUSH2 0x6C PUSH2 0x126 JUMP JUMPDEST PUSH1 0x40 MLOAD PUSH2 0x79 SWAP2 SWAP1 PUSH2 0x3EF JUMP JUMPDEST PUSH1 0x40 MLOAD DUP1 SWAP2 SUB SWAP1 RETURN JUMPDEST CALLVALUE DUP1 ISZERO PUSH2 0x8D JUMPI PUSH0 PUSH0 REVERT JUMPDEST POP PUSH2 0xA8 PUSH1 0x4 DUP1 CALLDATASIZE SUB DUP2 ADD SWAP1 PUSH2 0xA3 SWAP2 SWAP1 PUSH2 0x43F JUMP JUMPDEST PUSH2 0x14B JUMP JUMPDEST STOP JUMPDEST CALLVALUE DUP1 ISZERO PUSH2 0xB5 JUMPI PUSH0 PUSH0 REVERT JUMPDEST POP PUSH2 0xBE PUSH2 0x1F7 JUMP JUMPDEST PUSH1 0x40 MLOAD PUSH2 0xCB SWAP2 SWAP1 PUSH2 0x48A JUMP JUMPDEST PUSH1 0x40 MLOAD DUP1 SWAP2 SUB SWAP1 RETURN JUMPDEST CALLVALUE DUP1 ISZERO PUSH2 0xDF JUMPI PUSH0 PUSH0 REVERT JUMPDEST POP PUSH2 0xFA PUSH1 0x4 DUP1 CALLDATASIZE SUB DUP2 ADD SWAP1 PUSH2 0xF5 SWAP2 SWAP1 PUSH2 0x43F JUMP JUMPDEST PUSH2 0x21B JUMP JUMPDEST STOP JUMPDEST CALLVALUE DUP1 ISZERO PUSH2 0x107 JUMPI PUSH0 PUSH0 REVERT JUMPDEST POP PUSH2 0x110 PUSH2 0x3AA JUMP JUMPDEST PUSH1 0x40 MLOAD PUSH2 0x11D SWAP2 SWAP1 PUSH2 0x4B2 JUMP JUMPDEST PUSH1 0x40 MLOAD DUP1 SWAP2 SUB SWAP1 RETURN JUMPDEST PUSH1 0x1 PUSH0 SWAP1 SLOAD SWAP1 PUSH2 0x100 EXP SWAP1 DIV PUSH20 0xFFFFFFFFFFFFFFFFFFFFFFFFFFFFFFFFFFFFFFFF AND DUP2 JUMP JUMPDEST PUSH0 CALLER PUSH20 0xFFFFFFFFFFFFFFFFFFFFFFFFFFFFFFFFFFFFFFFF AND DUP3 PUSH1 0x40 MLOAD PUSH2 0x170 SWAP1 PUSH2 0x4F8 JUMP JUMPDEST PUSH0 PUSH1 0x40 MLOAD DUP1 DUP4 SUB DUP2 DUP6 DUP8 GAS CALL SWAP3 POP POP POP RETURNDATASIZE DUP1 PUSH0 DUP2 EQ PUSH2 0x1AA JUMPI PUSH1 0x40 MLOAD SWAP2 POP PUSH1 0x1F NOT PUSH1 0x3F RETURNDATASIZE ADD AND DUP3 ADD PUSH1 0x40 MSTORE RETURNDATASIZE DUP3 MSTORE RETURNDATASIZE PUSH0 PUSH1 0x20 DUP5 ADD RETURNDATACOPY PUSH2 0x1AF JUMP JUMPDEST PUSH1 0x60 SWAP2 POP JUMPDEST POP POP SWAP1 POP DUP1 PUSH2 0x1F3 JUMPI PUSH1 0x40 MLOAD PUSH32 0x8C379A000000000000000000000000000000000000000000000000000000000 DUP2 MSTORE PUSH1 0x4 ADD PUSH2 0x1EA SWAP1 PUSH2 0x566 JUMP JUMPDEST PUSH1 0x40 MLOAD DUP1 SWAP2 SUB SWAP1 REVERT JUMPDEST POP POP JUMP JUMPDEST PUSH0 PUSH0 SWAP1 SLOAD SWAP1 PUSH2 0x100 EXP SWAP1 DIV PUSH20 0xFFFFFFFFFFFFFFFFFFFFFFFFFFFFFFFFFFFFFFFF AND DUP2 JUMP JUMPDEST PUSH0 PUSH1 0x1 PUSH0 SWAP1 SLOAD SWAP1 PUSH2 0x100 EXP SWAP1 DIV PUSH20 0xFFFFFFFFFFFFFFFFFFFFFFFFFFFFFFFFFFFFFFFF AND PUSH20 0xFFFFFFFFFFFFFFFFFFFFFFFFFFFFFFFFFFFFFFFF AND PUSH4 0xCED72F87 PUSH1 0x40 MLOAD DUP2 PUSH4 0xFFFFFFFF AND PUSH1 0xE0 SHL DUP2 MSTORE PUSH1 0x4 ADD PUSH1 0x20 PUSH1 0x40 MLOAD DUP1 DUP4 SUB DUP2 DUP7 GAS STATICCALL ISZERO DUP1 ISZERO PUSH2 0x286 JUMPI RETURNDATASIZE PUSH0 PUSH0 RETURNDATACOPY RETURNDATASIZE PUSH0 REVERT JUMPDEST POP POP POP POP PUSH1 0x40 MLOAD RETURNDATASIZE PUSH1 0x1F NOT PUSH1 0x1F DUP3 ADD AND DUP3 ADD DUP1 PUSH1 0x40 MSTORE POP DUP2 ADD SWAP1 PUSH2 0x2AA SWAP2 SWAP1 PUSH2 0x598 JUMP JUMPDEST SWAP1 POP PUSH1 0x5 DUP2 GT ISZERO PUSH2 0x2F0 JUMPI PUSH1 0x40 MLOAD PUSH32 0x8C379A000000000000000000000000000000000000000000000000000000000 DUP2 MSTORE PUSH1 0x4 ADD PUSH2 0x2E7 SWAP1 PUSH2 0x633 JUMP JUMPDEST PUSH1 0x40 MLOAD DUP1 SWAP2 SUB SWAP1 REVERT JUMPDEST PUSH0 SELFBALANCE SWAP1 POP PUSH0 PUSH0 SWAP1 SLOAD SWAP1 PUSH2 0x100 EXP SWAP1 DIV PUSH20 0xFFFFFFFFFFFFFFFFFFFFFFFFFFFFFFFFFFFFFFFF AND PUSH20 0xFFFFFFFFFFFFFFFFFFFFFFFFFFFFFFFFFFFFFFFF AND PUSH2 0x8FC DUP5 SWAP1 DUP2 ISZERO MUL SWAP1 PUSH1 0x40 MLOAD PUSH0 PUSH1 0x40 MLOAD DUP1 DUP4 SUB DUP2 DUP6 DUP9 DUP9 CALL SWAP4 POP POP POP POP ISZERO DUP1 ISZERO PUSH2 0x357 JUMPI RETURNDATASIZE PUSH0 PUSH0 RETURNDATACOPY RETURNDATASIZE PUSH0 REVERT JUMPDEST POP DUP3 DUP2 PUSH2 0x364 SWAP2 SWAP1 PUSH2 0x67E JUMP JUMPDEST SELFBALANCE EQ PUSH2 0x3A5 JUMPI PUSH1 0x40 MLOAD PUSH32 0x8C379A000000000000000000000000000000000000000000000000000000000 DUP2 MSTORE PUSH1 0x4 ADD PUSH2 0x39C SWAP1 PUSH2 0x721 JUMP JUMPDEST PUSH1 0x40 MLOAD DUP1 SWAP2 SUB SWAP1 REVERT JUMPDEST POP POP POP JUMP JUMPDEST PUSH1 0x2 SLOAD DUP2 JUMP JUMPDEST PUSH0 PUSH20 0xFFFFFFFFFFFFFFFFFFFFFFFFFFFFFFFFFFFFFFFF DUP3 AND SWAP1 POP SWAP2 SWAP1 POP JUMP JUMPDEST PUSH0 PUSH2 0x3D9 DUP3 PUSH2 0x3B0 JUMP JUMPDEST SWAP1 POP SWAP2 SWAP1 POP JUMP JUMPDEST PUSH2 0x3E9 DUP2 PUSH2 0x3CF JUMP JUMPDEST DUP3 MSTORE POP POP JUMP JUMPDEST PUSH0 PUSH1 0x20 DUP3 ADD SWAP1 POP PUSH2 0x402 PUSH0 DUP4 ADD DUP5 PUSH2 0x3E0 JUMP JUMPDEST SWAP3 SWAP2 POP POP JUMP JUMPDEST PUSH0 PUSH0 REVERT JUMPDEST PUSH0 DUP2 SWAP1 POP SWAP2 SWAP1 POP JUMP JUMPDEST PUSH2 0x41E DUP2 PUSH2 0x40C JUMP JUMPDEST DUP2 EQ PUSH2 0x428 JUMPI PUSH0 PUSH0 REVERT JUMPDEST POP JUMP JUMPDEST PUSH0 DUP2 CALLDATALOAD SWAP1 POP PUSH2 0x439 DUP2 PUSH2 0x415 JUMP JUMPDEST SWAP3 SWAP2 POP POP JUMP JUMPDEST PUSH0 PUSH1 0x20 DUP3 DUP5 SUB SLT ISZERO PUSH2 0x454 JUMPI PUSH2 0x453 PUSH2 0x408 JUMP JUMPDEST JUMPDEST PUSH0 PUSH2 0x461 DUP5 DUP3 DUP6 ADD PUSH2 0x42B JUMP JUMPDEST SWAP2 POP POP SWAP3 SWAP2 POP POP JUMP JUMPDEST PUSH0 PUSH2 0x474 DUP3 PUSH2 0x3B0 JUMP JUMPDEST SWAP1 POP SWAP2 SWAP1 POP JUMP JUMPDEST PUSH2 0x484 DUP2 PUSH2 0x46A JUMP JUMPDEST DUP3 MSTORE POP POP JUMP JUMPDEST PUSH0 PUSH1 0x20 DUP3 ADD SWAP1 POP PUSH2 0x49D PUSH0 DUP4 ADD DUP5 PUSH2 0x47B JUMP JUMPDEST SWAP3 SWAP2 POP POP JUMP JUMPDEST PUSH2 0x4AC DUP2 PUSH2 0x40C JUMP JUMPDEST DUP3 MSTORE POP POP JUMP JUMPDEST PUSH0 PUSH1 0x20 DUP3 ADD SWAP1 POP PUSH2 0x4C5 PUSH0 DUP4 ADD DUP5 PUSH2 0x4A3 JUMP JUMPDEST SWAP3 SWAP2 POP POP JUMP JUMPDEST PUSH0 DUP2 SWAP1 POP SWAP3 SWAP2 POP POP JUMP JUMPDEST POP JUMP JUMPDEST PUSH0 PUSH2 0x4E3 PUSH0 DUP4 PUSH2 0x4CB JUMP JUMPDEST SWAP2 POP PUSH2 0x4EE DUP3 PUSH2 0x4D5 JUMP JUMPDEST PUSH0 DUP3 ADD SWAP1 POP SWAP2 SWAP1 POP JUMP JUMPDEST PUSH0 PUSH2 0x502 DUP3 PUSH2 0x4D8 JUMP JUMPDEST SWAP2 POP DUP2 SWAP1 POP SWAP2 SWAP1 POP JUMP JUMPDEST PUSH0 DUP3 DUP3 MSTORE PUSH1 0x20 DUP3 ADD SWAP1 POP SWAP3 SWAP2 POP POP JUMP JUMPDEST PUSH32 0x5472616E73666572206661696C65640000000000000000000000000000000000 PUSH0 DUP3 ADD MSTORE POP JUMP JUMPDEST PUSH0 PUSH2 0x550 PUSH1 0xF DUP4 PUSH2 0x50C JUMP JUMPDEST SWAP2 POP PUSH2 0x55B DUP3 PUSH2 0x51C JUMP JUMPDEST PUSH1 0x20 DUP3 ADD SWAP1 POP SWAP2 SWAP1 POP JUMP JUMPDEST PUSH0 PUSH1 0x20 DUP3 ADD SWAP1 POP DUP2 DUP2 SUB PUSH0 DUP4 ADD MSTORE PUSH2 0x57D DUP2 PUSH2 0x544 JUMP JUMPDEST SWAP1 POP SWAP2 SWAP1 POP JUMP JUMPDEST PUSH0 DUP2 MLOAD SWAP1 POP PUSH2 0x592 DUP2 PUSH2 0x415 JUMP JUMPDEST SWAP3 SWAP2 POP POP JUMP JUMPDEST PUSH0 PUSH1 0x20 DUP3 DUP5 SUB SLT ISZERO PUSH2 0x5AD JUMPI PUSH2 0x5AC PUSH2 0x408 JUMP JUMPDEST JUMPDEST PUSH0 PUSH2 0x5BA DUP5 DUP3 DUP6 ADD PUSH2 0x584 JUMP JUMPDEST SWAP2 POP POP SWAP3 SWAP2 POP POP JUMP JUMPDEST PUSH32 0x4C6120466565206573206D61796F72206120352C206E6F207365207075656465 PUSH0 DUP3 ADD MSTORE PUSH32 0x20656E766961722045746865722E000000000000000000000000000000000000 PUSH1 0x20 DUP3 ADD MSTORE POP JUMP JUMPDEST PUSH0 PUSH2 0x61D PUSH1 0x2E DUP4 PUSH2 0x50C JUMP JUMPDEST SWAP2 POP PUSH2 0x628 DUP3 PUSH2 0x5C3 JUMP JUMPDEST PUSH1 0x40 DUP3 ADD SWAP1 POP SWAP2 SWAP1 POP JUMP JUMPDEST PUSH0 PUSH1 0x20 DUP3 ADD SWAP1 POP DUP2 DUP2 SUB PUSH0 DUP4 ADD MSTORE PUSH2 0x64A DUP2 PUSH2 0x611 JUMP JUMPDEST SWAP1 POP SWAP2 SWAP1 POP JUMP JUMPDEST PUSH32 0x4E487B7100000000000000000000000000000000000000000000000000000000 PUSH0 MSTORE PUSH1 0x11 PUSH1 0x4 MSTORE PUSH1 0x24 PUSH0 REVERT JUMPDEST PUSH0 PUSH2 0x688 DUP3 PUSH2 0x40C JUMP JUMPDEST SWAP2 POP PUSH2 0x693 DUP4 PUSH2 0x40C JUMP JUMPDEST SWAP3 POP DUP3 DUP3 SUB SWAP1 POP DUP2 DUP2 GT ISZERO PUSH2 0x6AB JUMPI PUSH2 0x6AA PUSH2 0x651 JUMP JUMPDEST JUMPDEST SWAP3 SWAP2 POP POP JUMP JUMPDEST PUSH32 0x456C2073616C646F2064652041206E6F20736520726564756A6F20636F727265 PUSH0 DUP3 ADD MSTORE PUSH32 0x6374616D656E74652E0000000000000000000000000000000000000000000000 PUSH1 0x20 DUP3 ADD MSTORE POP JUMP JUMPDEST PUSH0 PUSH2 0x70B PUSH1 0x29 DUP4 PUSH2 0x50C JUMP JUMPDEST SWAP2 POP PUSH2 0x716 DUP3 PUSH2 0x6B1 JUMP JUMPDEST PUSH1 0x40 DUP3 ADD SWAP1 POP SWAP2 SWAP1 POP JUMP JUMPDEST PUSH0 PUSH1 0x20 DUP3 ADD SWAP1 POP DUP2 DUP2 SUB PUSH0 DUP4 ADD MSTORE PUSH2 0x738 DUP2 PUSH2 0x6FF JUMP JUMPDEST SWAP1 POP SWAP2 SWAP1 POP JUMP INVALID LOG2 PUSH5 0x6970667358 0x22 SLT KECCAK256 TIMESTAMP PUSH29 0x297FB7386E871DDC19133C89D74717F9D306D57B3417A32A954FAE9F07 0xE2 PUSH5 0x736F6C6343 STOP ADDMOD SHR STOP CALLER "
				},
				"gasEstimates": {
					"creation": {
						"codeDepositCost": "381800",
						"executionCost": "infinite",
						"totalCost": "infinite"
					},
					"external": {
						"contratoB()": "2529",
						"contratoD()": "2486",
						"enviarAEtherAlContratoB(uint256)": "infinite",
						"fee()": "2491",
						"withdrawEther(uint256)": "infinite"
					}
				},
				"methodIdentifiers": {
					"contratoB()": "3f4ee79f",
					"contratoD()": "05c3c87c",
					"enviarAEtherAlContratoB(uint256)": "9b690fb2",
					"fee()": "ddca3f43",
					"withdrawEther(uint256)": "3bed33ce"
				}
			},
			"storageLayout": {
				"storage": [
					{
						"astId": 14,
						"contract": "Bloque 4 Remix/J.12-EjemploPractico/ContractA.sol:ContratoA",
						"label": "contratoB",
						"offset": 0,
						"slot": "0",
						"type": "t_address_payable"
					},
					{
						"astId": 16,
						"contract": "Bloque 4 Remix/J.12-EjemploPractico/ContractA.sol:ContratoA",
						"label": "contratoD",
						"offset": 0,
						"slot": "1",
						"type": "t_address"
					},
					{
						"astId": 18,
						"contract": "Bloque 4 Remix/J.12-EjemploPractico/ContractA.sol:ContratoA",
						"label": "fee",
						"offset": 0,
						"slot": "2",
						"type": "t_uint256"
					}
				],
				"types": {
					"t_address": {
						"encoding": "inplace",
						"label": "address",
						"numberOfBytes": "20"
					},
					"t_address_payable": {
						"encoding": "inplace",
						"label": "address payable",
						"numberOfBytes": "20"
					},
					"t_uint256": {
						"encoding": "inplace",
						"label": "uint256",
						"numberOfBytes": "32"
					}
				}
			},
			"userdoc": {
				"kind": "user",
				"methods": {},
				"version": 1
			}
		}
	}
}