{
	"Bloque 4 Remix/J.12-MyOwnExercise/ContractA.sol": {
		"ContratoA": {
			"abi": [
				{
					"inputs": [
						{
							"internalType": "address",
							"name": "_contractB",
							"type": "address"
						},
						{
							"internalType": "address",
							"name": "_contractD",
							"type": "address"
						}
					],
					"stateMutability": "nonpayable",
					"type": "constructor"
				},
				{
					"inputs": [],
					"name": "contractB",
					"outputs": [
						{
							"internalType": "address payable",
							"name": "",
							"type": "address"
						}
					],
					"stateMutability": "view",
					"type": "function"
				},
				{
					"inputs": [],
					"name": "contractD",
					"outputs": [
						{
							"internalType": "address",
							"name": "",
							"type": "address"
						}
					],
					"stateMutability": "view",
					"type": "function"
				},
				{
					"inputs": [],
					"name": "fee",
					"outputs": [
						{
							"internalType": "uint256",
							"name": "",
							"type": "uint256"
						}
					],
					"stateMutability": "view",
					"type": "function"
				},
				{
					"inputs": [
						{
							"internalType": "uint256",
							"name": "amountToSend_",
							"type": "uint256"
						}
					],
					"name": "sendAEtherToContratoB",
					"outputs": [],
					"stateMutability": "nonpayable",
					"type": "function"
				},
				{
					"inputs": [
						{
							"internalType": "uint256",
							"name": "amount_",
							"type": "uint256"
						}
					],
					"name": "withdrawEther",
					"outputs": [],
					"stateMutability": "nonpayable",
					"type": "function"
				},
				{
					"stateMutability": "payable",
					"type": "receive"
				}
			],
			"devdoc": {
				"kind": "dev",
				"methods": {},
				"version": 1
			},
			"evm": {
				"assembly": "    /* \"Bloque 4 Remix/J.12-MyOwnExercise/ContractA.sol\":191:1426  contract ContratoA {... */\n  mstore(0x40, 0x80)\n    /* \"Bloque 4 Remix/J.12-MyOwnExercise/ContractA.sol\":318:453  constructor(address _contractB, address _contractD) {... */\n  callvalue\n  dup1\n  iszero\n  tag_1\n  jumpi\n  revert(0x00, 0x00)\ntag_1:\n  pop\n  mload(0x40)\n  sub(codesize, bytecodeSize)\n  dup1\n  bytecodeSize\n  dup4\n  codecopy\n  dup2\n  dup2\n  add\n  0x40\n  mstore\n  dup2\n  add\n  swap1\n  tag_2\n  swap2\n  swap1\n  tag_3\n  jump\t// in\ntag_2:\n    /* \"Bloque 4 Remix/J.12-MyOwnExercise/ContractA.sol\":401:411  _contractB */\n  dup2\n    /* \"Bloque 4 Remix/J.12-MyOwnExercise/ContractA.sol\":381:390  contractB */\n  0x00\n  0x00\n    /* \"Bloque 4 Remix/J.12-MyOwnExercise/ContractA.sol\":381:412  contractB = payable(_contractB) */\n  0x0100\n  exp\n  dup2\n  sload\n  dup2\n  0xffffffffffffffffffffffffffffffffffffffff\n  mul\n  not\n  and\n  swap1\n  dup4\n  0xffffffffffffffffffffffffffffffffffffffff\n  and\n  mul\n  or\n  swap1\n  sstore\n  pop\n    /* \"Bloque 4 Remix/J.12-MyOwnExercise/ContractA.sol\":435:445  _contractD */\n  dup1\n    /* \"Bloque 4 Remix/J.12-MyOwnExercise/ContractA.sol\":423:432  contractD */\n  0x01\n  0x00\n    /* \"Bloque 4 Remix/J.12-MyOwnExercise/ContractA.sol\":423:445  contractD = _contractD */\n  0x0100\n  exp\n  dup2\n  sload\n  dup2\n  0xffffffffffffffffffffffffffffffffffffffff\n  mul\n  not\n  and\n  swap1\n  dup4\n  0xffffffffffffffffffffffffffffffffffffffff\n  and\n  mul\n  or\n  swap1\n  sstore\n  pop\n    /* \"Bloque 4 Remix/J.12-MyOwnExercise/ContractA.sol\":318:453  constructor(address _contractB, address _contractD) {... */\n  pop\n  pop\n    /* \"Bloque 4 Remix/J.12-MyOwnExercise/ContractA.sol\":191:1426  contract ContratoA {... */\n  jump(tag_6)\n    /* \"#utility.yul\":88:205   */\ntag_8:\n    /* \"#utility.yul\":197:198   */\n  0x00\n    /* \"#utility.yul\":194:195   */\n  0x00\n    /* \"#utility.yul\":187:199   */\n  revert\n    /* \"#utility.yul\":334:460   */\ntag_10:\n    /* \"#utility.yul\":371:378   */\n  0x00\n    /* \"#utility.yul\":411:453   */\n  0xffffffffffffffffffffffffffffffffffffffff\n    /* \"#utility.yul\":404:409   */\n  dup3\n    /* \"#utility.yul\":400:454   */\n  and\n    /* \"#utility.yul\":389:454   */\n  swap1\n  pop\n    /* \"#utility.yul\":334:460   */\n  swap2\n  swap1\n  pop\n  jump\t// out\n    /* \"#utility.yul\":466:562   */\ntag_11:\n    /* \"#utility.yul\":503:510   */\n  0x00\n    /* \"#utility.yul\":532:556   */\n  tag_20\n    /* \"#utility.yul\":550:555   */\n  dup3\n    /* \"#utility.yul\":532:556   */\n  tag_10\n  jump\t// in\ntag_20:\n    /* \"#utility.yul\":521:556   */\n  swap1\n  pop\n    /* \"#utility.yul\":466:562   */\n  swap2\n  swap1\n  pop\n  jump\t// out\n    /* \"#utility.yul\":568:690   */\ntag_12:\n    /* \"#utility.yul\":641:665   */\n  tag_22\n    /* \"#utility.yul\":659:664   */\n  dup2\n    /* \"#utility.yul\":641:665   */\n  tag_11\n  jump\t// in\ntag_22:\n    /* \"#utility.yul\":634:639   */\n  dup2\n    /* \"#utility.yul\":631:666   */\n  eq\n    /* \"#utility.yul\":621:684   */\n  tag_23\n  jumpi\n    /* \"#utility.yul\":680:681   */\n  0x00\n    /* \"#utility.yul\":677:678   */\n  0x00\n    /* \"#utility.yul\":670:682   */\n  revert\n    /* \"#utility.yul\":621:684   */\ntag_23:\n    /* \"#utility.yul\":568:690   */\n  pop\n  jump\t// out\n    /* \"#utility.yul\":696:839   */\ntag_13:\n    /* \"#utility.yul\":753:758   */\n  0x00\n    /* \"#utility.yul\":784:790   */\n  dup2\n    /* \"#utility.yul\":778:791   */\n  mload\n    /* \"#utility.yul\":769:791   */\n  swap1\n  pop\n    /* \"#utility.yul\":800:833   */\n  tag_25\n    /* \"#utility.yul\":827:832   */\n  dup2\n    /* \"#utility.yul\":800:833   */\n  tag_12\n  jump\t// in\ntag_25:\n    /* \"#utility.yul\":696:839   */\n  swap3\n  swap2\n  pop\n  pop\n  jump\t// out\n    /* \"#utility.yul\":845:1352   */\ntag_3:\n    /* \"#utility.yul\":924:930   */\n  0x00\n    /* \"#utility.yul\":932:938   */\n  0x00\n    /* \"#utility.yul\":981:983   */\n  0x40\n    /* \"#utility.yul\":969:978   */\n  dup4\n    /* \"#utility.yul\":960:967   */\n  dup6\n    /* \"#utility.yul\":956:979   */\n  sub\n    /* \"#utility.yul\":952:984   */\n  slt\n    /* \"#utility.yul\":949:1068   */\n  iszero\n  tag_27\n  jumpi\n    /* \"#utility.yul\":987:1066   */\n  tag_28\n  tag_8\n  jump\t// in\ntag_28:\n    /* \"#utility.yul\":949:1068   */\ntag_27:\n    /* \"#utility.yul\":1107:1108   */\n  0x00\n    /* \"#utility.yul\":1132:1196   */\n  tag_29\n    /* \"#utility.yul\":1188:1195   */\n  dup6\n    /* \"#utility.yul\":1179:1185   */\n  dup3\n    /* \"#utility.yul\":1168:1177   */\n  dup7\n    /* \"#utility.yul\":1164:1186   */\n  add\n    /* \"#utility.yul\":1132:1196   */\n  tag_13\n  jump\t// in\ntag_29:\n    /* \"#utility.yul\":1122:1196   */\n  swap3\n  pop\n    /* \"#utility.yul\":1078:1206   */\n  pop\n    /* \"#utility.yul\":1245:1247   */\n  0x20\n    /* \"#utility.yul\":1271:1335   */\n  tag_30\n    /* \"#utility.yul\":1327:1334   */\n  dup6\n    /* \"#utility.yul\":1318:1324   */\n  dup3\n    /* \"#utility.yul\":1307:1316   */\n  dup7\n    /* \"#utility.yul\":1303:1325   */\n  add\n    /* \"#utility.yul\":1271:1335   */\n  tag_13\n  jump\t// in\ntag_30:\n    /* \"#utility.yul\":1261:1335   */\n  swap2\n  pop\n    /* \"#utility.yul\":1216:1345   */\n  pop\n    /* \"#utility.yul\":845:1352   */\n  swap3\n  pop\n  swap3\n  swap1\n  pop\n  jump\t// out\n    /* \"Bloque 4 Remix/J.12-MyOwnExercise/ContractA.sol\":191:1426  contract ContratoA {... */\ntag_6:\n  dataSize(sub_0)\n  dup1\n  dataOffset(sub_0)\n  0x00\n  codecopy\n  0x00\n  return\nstop\n\nsub_0: assembly {\n        /* \"Bloque 4 Remix/J.12-MyOwnExercise/ContractA.sol\":191:1426  contract ContratoA {... */\n      mstore(0x40, 0x80)\n      jumpi(tag_1, lt(calldatasize, 0x04))\n      shr(0xe0, calldataload(0x00))\n      dup1\n      0x3bed33ce\n      eq\n      tag_3\n      jumpi\n      dup1\n      0x3d99c193\n      eq\n      tag_4\n      jumpi\n      dup1\n      0x9ff8a368\n      eq\n      tag_5\n      jumpi\n      dup1\n      0xddca3f43\n      eq\n      tag_6\n      jumpi\n      dup1\n      0xe6384616\n      eq\n      tag_7\n      jumpi\n      jump(tag_2)\n    tag_1:\n      jumpi(tag_2, calldatasize)\n      stop\n    tag_2:\n      revert(0x00, 0x00)\n        /* \"Bloque 4 Remix/J.12-MyOwnExercise/ContractA.sol\":1195:1423  function withdrawEther(uint256 amount_) public {... */\n    tag_3:\n      callvalue\n      dup1\n      iszero\n      tag_10\n      jumpi\n      revert(0x00, 0x00)\n    tag_10:\n      pop\n      tag_11\n      0x04\n      dup1\n      calldatasize\n      sub\n      dup2\n      add\n      swap1\n      tag_12\n      swap2\n      swap1\n      tag_13\n      jump\t// in\n    tag_12:\n      tag_14\n      jump\t// in\n    tag_11:\n      stop\n        /* \"Bloque 4 Remix/J.12-MyOwnExercise/ContractA.sol\":617:1170  function sendAEtherToContratoB(uint256 amountToSend_) external {... */\n    tag_4:\n      callvalue\n      dup1\n      iszero\n      tag_15\n      jumpi\n      revert(0x00, 0x00)\n    tag_15:\n      pop\n      tag_16\n      0x04\n      dup1\n      calldatasize\n      sub\n      dup2\n      add\n      swap1\n      tag_17\n      swap2\n      swap1\n      tag_13\n      jump\t// in\n    tag_17:\n      tag_18\n      jump\t// in\n    tag_16:\n      stop\n        /* \"Bloque 4 Remix/J.12-MyOwnExercise/ContractA.sol\":217:249  address payable public contractB */\n    tag_5:\n      callvalue\n      dup1\n      iszero\n      tag_19\n      jumpi\n      revert(0x00, 0x00)\n    tag_19:\n      pop\n      tag_20\n      tag_21\n      jump\t// in\n    tag_20:\n      mload(0x40)\n      tag_22\n      swap2\n      swap1\n      tag_23\n      jump\t// in\n    tag_22:\n      mload(0x40)\n      dup1\n      swap2\n      sub\n      swap1\n      return\n        /* \"Bloque 4 Remix/J.12-MyOwnExercise/ContractA.sol\":287:305  uint256 public fee */\n    tag_6:\n      callvalue\n      dup1\n      iszero\n      tag_24\n      jumpi\n      revert(0x00, 0x00)\n    tag_24:\n      pop\n      tag_25\n      tag_26\n      jump\t// in\n    tag_25:\n      mload(0x40)\n      tag_27\n      swap2\n      swap1\n      tag_28\n      jump\t// in\n    tag_27:\n      mload(0x40)\n      dup1\n      swap2\n      sub\n      swap1\n      return\n        /* \"Bloque 4 Remix/J.12-MyOwnExercise/ContractA.sol\":256:280  address public contractD */\n    tag_7:\n      callvalue\n      dup1\n      iszero\n      tag_29\n      jumpi\n      revert(0x00, 0x00)\n    tag_29:\n      pop\n      tag_30\n      tag_31\n      jump\t// in\n    tag_30:\n      mload(0x40)\n      tag_32\n      swap2\n      swap1\n      tag_33\n      jump\t// in\n    tag_32:\n      mload(0x40)\n      dup1\n      swap2\n      sub\n      swap1\n      return\n        /* \"Bloque 4 Remix/J.12-MyOwnExercise/ContractA.sol\":1195:1423  function withdrawEther(uint256 amount_) public {... */\n    tag_14:\n        /* \"Bloque 4 Remix/J.12-MyOwnExercise/ContractA.sol\":1315:1327  bool success */\n      0x00\n        /* \"Bloque 4 Remix/J.12-MyOwnExercise/ContractA.sol\":1332:1342  msg.sender */\n      caller\n        /* \"Bloque 4 Remix/J.12-MyOwnExercise/ContractA.sol\":1332:1347  msg.sender.call */\n      0xffffffffffffffffffffffffffffffffffffffff\n      and\n        /* \"Bloque 4 Remix/J.12-MyOwnExercise/ContractA.sol\":1355:1362  amount_ */\n      dup3\n        /* \"Bloque 4 Remix/J.12-MyOwnExercise/ContractA.sol\":1332:1367  msg.sender.call{value: amount_}(\"\") */\n      mload(0x40)\n      tag_35\n      swap1\n      tag_36\n      jump\t// in\n    tag_35:\n      0x00\n      mload(0x40)\n      dup1\n      dup4\n      sub\n      dup2\n      dup6\n      dup8\n      gas\n      call\n      swap3\n      pop\n      pop\n      pop\n      returndatasize\n      dup1\n      0x00\n      dup2\n      eq\n      tag_39\n      jumpi\n      mload(0x40)\n      swap2\n      pop\n      and(add(returndatasize, 0x3f), not(0x1f))\n      dup3\n      add\n      0x40\n      mstore\n      returndatasize\n      dup3\n      mstore\n      returndatasize\n      0x00\n      0x20\n      dup5\n      add\n      returndatacopy\n      jump(tag_38)\n    tag_39:\n      0x60\n      swap2\n      pop\n    tag_38:\n      pop\n        /* \"Bloque 4 Remix/J.12-MyOwnExercise/ContractA.sol\":1314:1367  (bool success, )= msg.sender.call{value: amount_}(\"\") */\n      pop\n      swap1\n      pop\n        /* \"Bloque 4 Remix/J.12-MyOwnExercise/ContractA.sol\":1386:1393  success */\n      dup1\n        /* \"Bloque 4 Remix/J.12-MyOwnExercise/ContractA.sol\":1378:1413  require(success, \"Transfer failed\") */\n      tag_40\n      jumpi\n      mload(0x40)\n      0x08c379a000000000000000000000000000000000000000000000000000000000\n      dup2\n      mstore\n      0x04\n      add\n      tag_41\n      swap1\n      tag_42\n      jump\t// in\n    tag_41:\n      mload(0x40)\n      dup1\n      swap2\n      sub\n      swap1\n      revert\n    tag_40:\n        /* \"Bloque 4 Remix/J.12-MyOwnExercise/ContractA.sol\":1242:1423  {... */\n      pop\n        /* \"Bloque 4 Remix/J.12-MyOwnExercise/ContractA.sol\":1195:1423  function withdrawEther(uint256 amount_) public {... */\n      pop\n      jump\t// out\n        /* \"Bloque 4 Remix/J.12-MyOwnExercise/ContractA.sol\":617:1170  function sendAEtherToContratoB(uint256 amountToSend_) external {... */\n    tag_18:\n        /* \"Bloque 4 Remix/J.12-MyOwnExercise/ContractA.sol\":691:709  uint256 currentFee */\n      0x00\n        /* \"Bloque 4 Remix/J.12-MyOwnExercise/ContractA.sol\":724:733  contractD */\n      0x01\n      0x00\n      swap1\n      sload\n      swap1\n      0x0100\n      exp\n      swap1\n      div\n      0xffffffffffffffffffffffffffffffffffffffff\n      and\n        /* \"Bloque 4 Remix/J.12-MyOwnExercise/ContractA.sol\":712:741  IDContratoD(contractD).getFee */\n      0xffffffffffffffffffffffffffffffffffffffff\n      and\n      0xced72f87\n        /* \"Bloque 4 Remix/J.12-MyOwnExercise/ContractA.sol\":712:743  IDContratoD(contractD).getFee() */\n      mload(0x40)\n      dup2\n      0xffffffff\n      and\n      0xe0\n      shl\n      dup2\n      mstore\n      0x04\n      add\n      0x20\n      mload(0x40)\n      dup1\n      dup4\n      sub\n      dup2\n      dup7\n      gas\n      staticcall\n      iszero\n      dup1\n      iszero\n      tag_45\n      jumpi\n      returndatacopy(0x00, 0x00, returndatasize)\n      revert(0x00, returndatasize)\n    tag_45:\n      pop\n      pop\n      pop\n      pop\n      mload(0x40)\n      returndatasize\n      not(0x1f)\n      0x1f\n      dup3\n      add\n      and\n      dup3\n      add\n      dup1\n      0x40\n      mstore\n      pop\n      dup2\n      add\n      swap1\n      tag_46\n      swap2\n      swap1\n      tag_47\n      jump\t// in\n    tag_46:\n        /* \"Bloque 4 Remix/J.12-MyOwnExercise/ContractA.sol\":691:743  uint256 currentFee = IDContratoD(contractD).getFee() */\n      swap1\n      pop\n        /* \"Bloque 4 Remix/J.12-MyOwnExercise/ContractA.sol\":776:777  5 */\n      0x05\n        /* \"Bloque 4 Remix/J.12-MyOwnExercise/ContractA.sol\":762:772  currentFee */\n      dup2\n        /* \"Bloque 4 Remix/J.12-MyOwnExercise/ContractA.sol\":762:777  currentFee <= 5 */\n      gt\n      iszero\n        /* \"Bloque 4 Remix/J.12-MyOwnExercise/ContractA.sol\":754:824  require(currentFee <= 5, \"Fee is higher than 5, Ether can't be sent.\") */\n      tag_48\n      jumpi\n      mload(0x40)\n      0x08c379a000000000000000000000000000000000000000000000000000000000\n      dup2\n      mstore\n      0x04\n      add\n      tag_49\n      swap1\n      tag_50\n      jump\t// in\n    tag_49:\n      mload(0x40)\n      dup1\n      swap2\n      sub\n      swap1\n      revert\n    tag_48:\n        /* \"Bloque 4 Remix/J.12-MyOwnExercise/ContractA.sol\":837:853  uint256 balanceA */\n      0x00\n        /* \"Bloque 4 Remix/J.12-MyOwnExercise/ContractA.sol\":856:877  address(this).balance */\n      selfbalance\n        /* \"Bloque 4 Remix/J.12-MyOwnExercise/ContractA.sol\":837:877  uint256 balanceA = address(this).balance */\n      swap1\n      pop\n        /* \"Bloque 4 Remix/J.12-MyOwnExercise/ContractA.sol\":948:957  contractB */\n      0x00\n      0x00\n      swap1\n      sload\n      swap1\n      0x0100\n      exp\n      swap1\n      div\n      0xffffffffffffffffffffffffffffffffffffffff\n      and\n        /* \"Bloque 4 Remix/J.12-MyOwnExercise/ContractA.sol\":948:966  contractB.transfer */\n      0xffffffffffffffffffffffffffffffffffffffff\n      and\n        /* \"Bloque 4 Remix/J.12-MyOwnExercise/ContractA.sol\":948:981  contractB.transfer(amountToSend_) */\n      0x08fc\n        /* \"Bloque 4 Remix/J.12-MyOwnExercise/ContractA.sol\":967:980  amountToSend_ */\n      dup5\n        /* \"Bloque 4 Remix/J.12-MyOwnExercise/ContractA.sol\":948:981  contractB.transfer(amountToSend_) */\n      swap1\n      dup2\n      iszero\n      mul\n      swap1\n      mload(0x40)\n      0x00\n      mload(0x40)\n      dup1\n      dup4\n      sub\n      dup2\n      dup6\n      dup9\n      dup9\n      call\n      swap4\n      pop\n      pop\n      pop\n      pop\n      iszero\n      dup1\n      iszero\n      tag_52\n      jumpi\n      returndatacopy(0x00, 0x00, returndatasize)\n      revert(0x00, returndatasize)\n    tag_52:\n      pop\n        /* \"Bloque 4 Remix/J.12-MyOwnExercise/ContractA.sol\":1102:1115  amountToSend_ */\n      dup3\n        /* \"Bloque 4 Remix/J.12-MyOwnExercise/ContractA.sol\":1091:1099  balanceA */\n      dup2\n        /* \"Bloque 4 Remix/J.12-MyOwnExercise/ContractA.sol\":1091:1115  balanceA - amountToSend_ */\n      tag_53\n      swap2\n      swap1\n      tag_54\n      jump\t// in\n    tag_53:\n        /* \"Bloque 4 Remix/J.12-MyOwnExercise/ContractA.sol\":1066:1087  address(this).balance */\n      selfbalance\n        /* \"Bloque 4 Remix/J.12-MyOwnExercise/ContractA.sol\":1066:1115  address(this).balance == balanceA - amountToSend_ */\n      eq\n        /* \"Bloque 4 Remix/J.12-MyOwnExercise/ContractA.sol\":1058:1162  require(address(this).balance == balanceA - amountToSend_, \"Contract A balance didn't adjust properly.\") */\n      tag_55\n      jumpi\n      mload(0x40)\n      0x08c379a000000000000000000000000000000000000000000000000000000000\n      dup2\n      mstore\n      0x04\n      add\n      tag_56\n      swap1\n      tag_57\n      jump\t// in\n    tag_56:\n      mload(0x40)\n      dup1\n      swap2\n      sub\n      swap1\n      revert\n    tag_55:\n        /* \"Bloque 4 Remix/J.12-MyOwnExercise/ContractA.sol\":680:1170  {... */\n      pop\n      pop\n        /* \"Bloque 4 Remix/J.12-MyOwnExercise/ContractA.sol\":617:1170  function sendAEtherToContratoB(uint256 amountToSend_) external {... */\n      pop\n      jump\t// out\n        /* \"Bloque 4 Remix/J.12-MyOwnExercise/ContractA.sol\":217:249  address payable public contractB */\n    tag_21:\n      0x00\n      0x00\n      swap1\n      sload\n      swap1\n      0x0100\n      exp\n      swap1\n      div\n      0xffffffffffffffffffffffffffffffffffffffff\n      and\n      dup2\n      jump\t// out\n        /* \"Bloque 4 Remix/J.12-MyOwnExercise/ContractA.sol\":287:305  uint256 public fee */\n    tag_26:\n      sload(0x02)\n      dup2\n      jump\t// out\n        /* \"Bloque 4 Remix/J.12-MyOwnExercise/ContractA.sol\":256:280  address public contractD */\n    tag_31:\n      0x01\n      0x00\n      swap1\n      sload\n      swap1\n      0x0100\n      exp\n      swap1\n      div\n      0xffffffffffffffffffffffffffffffffffffffff\n      and\n      dup2\n      jump\t// out\n        /* \"#utility.yul\":88:205   */\n    tag_59:\n        /* \"#utility.yul\":197:198   */\n      0x00\n        /* \"#utility.yul\":194:195   */\n      0x00\n        /* \"#utility.yul\":187:199   */\n      revert\n        /* \"#utility.yul\":334:411   */\n    tag_61:\n        /* \"#utility.yul\":371:378   */\n      0x00\n        /* \"#utility.yul\":400:405   */\n      dup2\n        /* \"#utility.yul\":389:405   */\n      swap1\n      pop\n        /* \"#utility.yul\":334:411   */\n      swap2\n      swap1\n      pop\n      jump\t// out\n        /* \"#utility.yul\":417:539   */\n    tag_62:\n        /* \"#utility.yul\":490:514   */\n      tag_88\n        /* \"#utility.yul\":508:513   */\n      dup2\n        /* \"#utility.yul\":490:514   */\n      tag_61\n      jump\t// in\n    tag_88:\n        /* \"#utility.yul\":483:488   */\n      dup2\n        /* \"#utility.yul\":480:515   */\n      eq\n        /* \"#utility.yul\":470:533   */\n      tag_89\n      jumpi\n        /* \"#utility.yul\":529:530   */\n      0x00\n        /* \"#utility.yul\":526:527   */\n      0x00\n        /* \"#utility.yul\":519:531   */\n      revert\n        /* \"#utility.yul\":470:533   */\n    tag_89:\n        /* \"#utility.yul\":417:539   */\n      pop\n      jump\t// out\n        /* \"#utility.yul\":545:684   */\n    tag_63:\n        /* \"#utility.yul\":591:596   */\n      0x00\n        /* \"#utility.yul\":629:635   */\n      dup2\n        /* \"#utility.yul\":616:636   */\n      calldataload\n        /* \"#utility.yul\":607:636   */\n      swap1\n      pop\n        /* \"#utility.yul\":645:678   */\n      tag_91\n        /* \"#utility.yul\":672:677   */\n      dup2\n        /* \"#utility.yul\":645:678   */\n      tag_62\n      jump\t// in\n    tag_91:\n        /* \"#utility.yul\":545:684   */\n      swap3\n      swap2\n      pop\n      pop\n      jump\t// out\n        /* \"#utility.yul\":690:1019   */\n    tag_13:\n        /* \"#utility.yul\":749:755   */\n      0x00\n        /* \"#utility.yul\":798:800   */\n      0x20\n        /* \"#utility.yul\":786:795   */\n      dup3\n        /* \"#utility.yul\":777:784   */\n      dup5\n        /* \"#utility.yul\":773:796   */\n      sub\n        /* \"#utility.yul\":769:801   */\n      slt\n        /* \"#utility.yul\":766:885   */\n      iszero\n      tag_93\n      jumpi\n        /* \"#utility.yul\":804:883   */\n      tag_94\n      tag_59\n      jump\t// in\n    tag_94:\n        /* \"#utility.yul\":766:885   */\n    tag_93:\n        /* \"#utility.yul\":924:925   */\n      0x00\n        /* \"#utility.yul\":949:1002   */\n      tag_95\n        /* \"#utility.yul\":994:1001   */\n      dup5\n        /* \"#utility.yul\":985:991   */\n      dup3\n        /* \"#utility.yul\":974:983   */\n      dup6\n        /* \"#utility.yul\":970:992   */\n      add\n        /* \"#utility.yul\":949:1002   */\n      tag_63\n      jump\t// in\n    tag_95:\n        /* \"#utility.yul\":939:1002   */\n      swap2\n      pop\n        /* \"#utility.yul\":895:1012   */\n      pop\n        /* \"#utility.yul\":690:1019   */\n      swap3\n      swap2\n      pop\n      pop\n      jump\t// out\n        /* \"#utility.yul\":1025:1151   */\n    tag_64:\n        /* \"#utility.yul\":1062:1069   */\n      0x00\n        /* \"#utility.yul\":1102:1144   */\n      0xffffffffffffffffffffffffffffffffffffffff\n        /* \"#utility.yul\":1095:1100   */\n      dup3\n        /* \"#utility.yul\":1091:1145   */\n      and\n        /* \"#utility.yul\":1080:1145   */\n      swap1\n      pop\n        /* \"#utility.yul\":1025:1151   */\n      swap2\n      swap1\n      pop\n      jump\t// out\n        /* \"#utility.yul\":1157:1261   */\n    tag_65:\n        /* \"#utility.yul\":1202:1209   */\n      0x00\n        /* \"#utility.yul\":1231:1255   */\n      tag_98\n        /* \"#utility.yul\":1249:1254   */\n      dup3\n        /* \"#utility.yul\":1231:1255   */\n      tag_64\n      jump\t// in\n    tag_98:\n        /* \"#utility.yul\":1220:1255   */\n      swap1\n      pop\n        /* \"#utility.yul\":1157:1261   */\n      swap2\n      swap1\n      pop\n      jump\t// out\n        /* \"#utility.yul\":1267:1409   */\n    tag_66:\n        /* \"#utility.yul\":1370:1402   */\n      tag_100\n        /* \"#utility.yul\":1396:1401   */\n      dup2\n        /* \"#utility.yul\":1370:1402   */\n      tag_65\n      jump\t// in\n    tag_100:\n        /* \"#utility.yul\":1365:1368   */\n      dup3\n        /* \"#utility.yul\":1358:1403   */\n      mstore\n        /* \"#utility.yul\":1267:1409   */\n      pop\n      pop\n      jump\t// out\n        /* \"#utility.yul\":1415:1669   */\n    tag_23:\n        /* \"#utility.yul\":1524:1528   */\n      0x00\n        /* \"#utility.yul\":1562:1564   */\n      0x20\n        /* \"#utility.yul\":1551:1560   */\n      dup3\n        /* \"#utility.yul\":1547:1565   */\n      add\n        /* \"#utility.yul\":1539:1565   */\n      swap1\n      pop\n        /* \"#utility.yul\":1575:1662   */\n      tag_102\n        /* \"#utility.yul\":1659:1660   */\n      0x00\n        /* \"#utility.yul\":1648:1657   */\n      dup4\n        /* \"#utility.yul\":1644:1661   */\n      add\n        /* \"#utility.yul\":1635:1641   */\n      dup5\n        /* \"#utility.yul\":1575:1662   */\n      tag_66\n      jump\t// in\n    tag_102:\n        /* \"#utility.yul\":1415:1669   */\n      swap3\n      swap2\n      pop\n      pop\n      jump\t// out\n        /* \"#utility.yul\":1675:1793   */\n    tag_67:\n        /* \"#utility.yul\":1762:1786   */\n      tag_104\n        /* \"#utility.yul\":1780:1785   */\n      dup2\n        /* \"#utility.yul\":1762:1786   */\n      tag_61\n      jump\t// in\n    tag_104:\n        /* \"#utility.yul\":1757:1760   */\n      dup3\n        /* \"#utility.yul\":1750:1787   */\n      mstore\n        /* \"#utility.yul\":1675:1793   */\n      pop\n      pop\n      jump\t// out\n        /* \"#utility.yul\":1799:2021   */\n    tag_28:\n        /* \"#utility.yul\":1892:1896   */\n      0x00\n        /* \"#utility.yul\":1930:1932   */\n      0x20\n        /* \"#utility.yul\":1919:1928   */\n      dup3\n        /* \"#utility.yul\":1915:1933   */\n      add\n        /* \"#utility.yul\":1907:1933   */\n      swap1\n      pop\n        /* \"#utility.yul\":1943:2014   */\n      tag_106\n        /* \"#utility.yul\":2011:2012   */\n      0x00\n        /* \"#utility.yul\":2000:2009   */\n      dup4\n        /* \"#utility.yul\":1996:2013   */\n      add\n        /* \"#utility.yul\":1987:1993   */\n      dup5\n        /* \"#utility.yul\":1943:2014   */\n      tag_67\n      jump\t// in\n    tag_106:\n        /* \"#utility.yul\":1799:2021   */\n      swap3\n      swap2\n      pop\n      pop\n      jump\t// out\n        /* \"#utility.yul\":2027:2123   */\n    tag_68:\n        /* \"#utility.yul\":2064:2071   */\n      0x00\n        /* \"#utility.yul\":2093:2117   */\n      tag_108\n        /* \"#utility.yul\":2111:2116   */\n      dup3\n        /* \"#utility.yul\":2093:2117   */\n      tag_64\n      jump\t// in\n    tag_108:\n        /* \"#utility.yul\":2082:2117   */\n      swap1\n      pop\n        /* \"#utility.yul\":2027:2123   */\n      swap2\n      swap1\n      pop\n      jump\t// out\n        /* \"#utility.yul\":2129:2247   */\n    tag_69:\n        /* \"#utility.yul\":2216:2240   */\n      tag_110\n        /* \"#utility.yul\":2234:2239   */\n      dup2\n        /* \"#utility.yul\":2216:2240   */\n      tag_68\n      jump\t// in\n    tag_110:\n        /* \"#utility.yul\":2211:2214   */\n      dup3\n        /* \"#utility.yul\":2204:2241   */\n      mstore\n        /* \"#utility.yul\":2129:2247   */\n      pop\n      pop\n      jump\t// out\n        /* \"#utility.yul\":2253:2475   */\n    tag_33:\n        /* \"#utility.yul\":2346:2350   */\n      0x00\n        /* \"#utility.yul\":2384:2386   */\n      0x20\n        /* \"#utility.yul\":2373:2382   */\n      dup3\n        /* \"#utility.yul\":2369:2387   */\n      add\n        /* \"#utility.yul\":2361:2387   */\n      swap1\n      pop\n        /* \"#utility.yul\":2397:2468   */\n      tag_112\n        /* \"#utility.yul\":2465:2466   */\n      0x00\n        /* \"#utility.yul\":2454:2463   */\n      dup4\n        /* \"#utility.yul\":2450:2467   */\n      add\n        /* \"#utility.yul\":2441:2447   */\n      dup5\n        /* \"#utility.yul\":2397:2468   */\n      tag_69\n      jump\t// in\n    tag_112:\n        /* \"#utility.yul\":2253:2475   */\n      swap3\n      swap2\n      pop\n      pop\n      jump\t// out\n        /* \"#utility.yul\":2481:2628   */\n    tag_70:\n        /* \"#utility.yul\":2582:2593   */\n      0x00\n        /* \"#utility.yul\":2619:2622   */\n      dup2\n        /* \"#utility.yul\":2604:2622   */\n      swap1\n      pop\n        /* \"#utility.yul\":2481:2628   */\n      swap3\n      swap2\n      pop\n      pop\n      jump\t// out\n        /* \"#utility.yul\":2634:2748   */\n    tag_71:\n      pop\n      jump\t// out\n        /* \"#utility.yul\":2754:3152   */\n    tag_72:\n        /* \"#utility.yul\":2913:2916   */\n      0x00\n        /* \"#utility.yul\":2934:3017   */\n      tag_116\n        /* \"#utility.yul\":3015:3016   */\n      0x00\n        /* \"#utility.yul\":3010:3013   */\n      dup4\n        /* \"#utility.yul\":2934:3017   */\n      tag_70\n      jump\t// in\n    tag_116:\n        /* \"#utility.yul\":2927:3017   */\n      swap2\n      pop\n        /* \"#utility.yul\":3026:3119   */\n      tag_117\n        /* \"#utility.yul\":3115:3118   */\n      dup3\n        /* \"#utility.yul\":3026:3119   */\n      tag_71\n      jump\t// in\n    tag_117:\n        /* \"#utility.yul\":3144:3145   */\n      0x00\n        /* \"#utility.yul\":3139:3142   */\n      dup3\n        /* \"#utility.yul\":3135:3146   */\n      add\n        /* \"#utility.yul\":3128:3146   */\n      swap1\n      pop\n        /* \"#utility.yul\":2754:3152   */\n      swap2\n      swap1\n      pop\n      jump\t// out\n        /* \"#utility.yul\":3158:3537   */\n    tag_36:\n        /* \"#utility.yul\":3342:3345   */\n      0x00\n        /* \"#utility.yul\":3364:3511   */\n      tag_119\n        /* \"#utility.yul\":3507:3510   */\n      dup3\n        /* \"#utility.yul\":3364:3511   */\n      tag_72\n      jump\t// in\n    tag_119:\n        /* \"#utility.yul\":3357:3511   */\n      swap2\n      pop\n        /* \"#utility.yul\":3528:3531   */\n      dup2\n        /* \"#utility.yul\":3521:3531   */\n      swap1\n      pop\n        /* \"#utility.yul\":3158:3537   */\n      swap2\n      swap1\n      pop\n      jump\t// out\n        /* \"#utility.yul\":3543:3712   */\n    tag_73:\n        /* \"#utility.yul\":3627:3638   */\n      0x00\n        /* \"#utility.yul\":3661:3667   */\n      dup3\n        /* \"#utility.yul\":3656:3659   */\n      dup3\n        /* \"#utility.yul\":3649:3668   */\n      mstore\n        /* \"#utility.yul\":3701:3705   */\n      0x20\n        /* \"#utility.yul\":3696:3699   */\n      dup3\n        /* \"#utility.yul\":3692:3706   */\n      add\n        /* \"#utility.yul\":3677:3706   */\n      swap1\n      pop\n        /* \"#utility.yul\":3543:3712   */\n      swap3\n      swap2\n      pop\n      pop\n      jump\t// out\n        /* \"#utility.yul\":3718:3883   */\n    tag_74:\n        /* \"#utility.yul\":3858:3875   */\n      0x5472616e73666572206661696c65640000000000000000000000000000000000\n        /* \"#utility.yul\":3854:3855   */\n      0x00\n        /* \"#utility.yul\":3846:3852   */\n      dup3\n        /* \"#utility.yul\":3842:3856   */\n      add\n        /* \"#utility.yul\":3835:3876   */\n      mstore\n        /* \"#utility.yul\":3718:3883   */\n      pop\n      jump\t// out\n        /* \"#utility.yul\":3889:4255   */\n    tag_75:\n        /* \"#utility.yul\":4031:4034   */\n      0x00\n        /* \"#utility.yul\":4052:4119   */\n      tag_123\n        /* \"#utility.yul\":4116:4118   */\n      0x0f\n        /* \"#utility.yul\":4111:4114   */\n      dup4\n        /* \"#utility.yul\":4052:4119   */\n      tag_73\n      jump\t// in\n    tag_123:\n        /* \"#utility.yul\":4045:4119   */\n      swap2\n      pop\n        /* \"#utility.yul\":4128:4221   */\n      tag_124\n        /* \"#utility.yul\":4217:4220   */\n      dup3\n        /* \"#utility.yul\":4128:4221   */\n      tag_74\n      jump\t// in\n    tag_124:\n        /* \"#utility.yul\":4246:4248   */\n      0x20\n        /* \"#utility.yul\":4241:4244   */\n      dup3\n        /* \"#utility.yul\":4237:4249   */\n      add\n        /* \"#utility.yul\":4230:4249   */\n      swap1\n      pop\n        /* \"#utility.yul\":3889:4255   */\n      swap2\n      swap1\n      pop\n      jump\t// out\n        /* \"#utility.yul\":4261:4680   */\n    tag_42:\n        /* \"#utility.yul\":4427:4431   */\n      0x00\n        /* \"#utility.yul\":4465:4467   */\n      0x20\n        /* \"#utility.yul\":4454:4463   */\n      dup3\n        /* \"#utility.yul\":4450:4468   */\n      add\n        /* \"#utility.yul\":4442:4468   */\n      swap1\n      pop\n        /* \"#utility.yul\":4514:4523   */\n      dup2\n        /* \"#utility.yul\":4508:4512   */\n      dup2\n        /* \"#utility.yul\":4504:4524   */\n      sub\n        /* \"#utility.yul\":4500:4501   */\n      0x00\n        /* \"#utility.yul\":4489:4498   */\n      dup4\n        /* \"#utility.yul\":4485:4502   */\n      add\n        /* \"#utility.yul\":4478:4525   */\n      mstore\n        /* \"#utility.yul\":4542:4673   */\n      tag_126\n        /* \"#utility.yul\":4668:4672   */\n      dup2\n        /* \"#utility.yul\":4542:4673   */\n      tag_75\n      jump\t// in\n    tag_126:\n        /* \"#utility.yul\":4534:4673   */\n      swap1\n      pop\n        /* \"#utility.yul\":4261:4680   */\n      swap2\n      swap1\n      pop\n      jump\t// out\n        /* \"#utility.yul\":4686:4829   */\n    tag_76:\n        /* \"#utility.yul\":4743:4748   */\n      0x00\n        /* \"#utility.yul\":4774:4780   */\n      dup2\n        /* \"#utility.yul\":4768:4781   */\n      mload\n        /* \"#utility.yul\":4759:4781   */\n      swap1\n      pop\n        /* \"#utility.yul\":4790:4823   */\n      tag_128\n        /* \"#utility.yul\":4817:4822   */\n      dup2\n        /* \"#utility.yul\":4790:4823   */\n      tag_62\n      jump\t// in\n    tag_128:\n        /* \"#utility.yul\":4686:4829   */\n      swap3\n      swap2\n      pop\n      pop\n      jump\t// out\n        /* \"#utility.yul\":4835:5186   */\n    tag_47:\n        /* \"#utility.yul\":4905:4911   */\n      0x00\n        /* \"#utility.yul\":4954:4956   */\n      0x20\n        /* \"#utility.yul\":4942:4951   */\n      dup3\n        /* \"#utility.yul\":4933:4940   */\n      dup5\n        /* \"#utility.yul\":4929:4952   */\n      sub\n        /* \"#utility.yul\":4925:4957   */\n      slt\n        /* \"#utility.yul\":4922:5041   */\n      iszero\n      tag_130\n      jumpi\n        /* \"#utility.yul\":4960:5039   */\n      tag_131\n      tag_59\n      jump\t// in\n    tag_131:\n        /* \"#utility.yul\":4922:5041   */\n    tag_130:\n        /* \"#utility.yul\":5080:5081   */\n      0x00\n        /* \"#utility.yul\":5105:5169   */\n      tag_132\n        /* \"#utility.yul\":5161:5168   */\n      dup5\n        /* \"#utility.yul\":5152:5158   */\n      dup3\n        /* \"#utility.yul\":5141:5150   */\n      dup6\n        /* \"#utility.yul\":5137:5159   */\n      add\n        /* \"#utility.yul\":5105:5169   */\n      tag_76\n      jump\t// in\n    tag_132:\n        /* \"#utility.yul\":5095:5169   */\n      swap2\n      pop\n        /* \"#utility.yul\":5051:5179   */\n      pop\n        /* \"#utility.yul\":4835:5186   */\n      swap3\n      swap2\n      pop\n      pop\n      jump\t// out\n        /* \"#utility.yul\":5192:5421   */\n    tag_77:\n        /* \"#utility.yul\":5332:5366   */\n      0x46656520697320686967686572207468616e20352c2045746865722063616e27\n        /* \"#utility.yul\":5328:5329   */\n      0x00\n        /* \"#utility.yul\":5320:5326   */\n      dup3\n        /* \"#utility.yul\":5316:5330   */\n      add\n        /* \"#utility.yul\":5309:5367   */\n      mstore\n        /* \"#utility.yul\":5401:5413   */\n      0x742062652073656e742e00000000000000000000000000000000000000000000\n        /* \"#utility.yul\":5396:5398   */\n      0x20\n        /* \"#utility.yul\":5388:5394   */\n      dup3\n        /* \"#utility.yul\":5384:5399   */\n      add\n        /* \"#utility.yul\":5377:5414   */\n      mstore\n        /* \"#utility.yul\":5192:5421   */\n      pop\n      jump\t// out\n        /* \"#utility.yul\":5427:5793   */\n    tag_78:\n        /* \"#utility.yul\":5569:5572   */\n      0x00\n        /* \"#utility.yul\":5590:5657   */\n      tag_135\n        /* \"#utility.yul\":5654:5656   */\n      0x2a\n        /* \"#utility.yul\":5649:5652   */\n      dup4\n        /* \"#utility.yul\":5590:5657   */\n      tag_73\n      jump\t// in\n    tag_135:\n        /* \"#utility.yul\":5583:5657   */\n      swap2\n      pop\n        /* \"#utility.yul\":5666:5759   */\n      tag_136\n        /* \"#utility.yul\":5755:5758   */\n      dup3\n        /* \"#utility.yul\":5666:5759   */\n      tag_77\n      jump\t// in\n    tag_136:\n        /* \"#utility.yul\":5784:5786   */\n      0x40\n        /* \"#utility.yul\":5779:5782   */\n      dup3\n        /* \"#utility.yul\":5775:5787   */\n      add\n        /* \"#utility.yul\":5768:5787   */\n      swap1\n      pop\n        /* \"#utility.yul\":5427:5793   */\n      swap2\n      swap1\n      pop\n      jump\t// out\n        /* \"#utility.yul\":5799:6218   */\n    tag_50:\n        /* \"#utility.yul\":5965:5969   */\n      0x00\n        /* \"#utility.yul\":6003:6005   */\n      0x20\n        /* \"#utility.yul\":5992:6001   */\n      dup3\n        /* \"#utility.yul\":5988:6006   */\n      add\n        /* \"#utility.yul\":5980:6006   */\n      swap1\n      pop\n        /* \"#utility.yul\":6052:6061   */\n      dup2\n        /* \"#utility.yul\":6046:6050   */\n      dup2\n        /* \"#utility.yul\":6042:6062   */\n      sub\n        /* \"#utility.yul\":6038:6039   */\n      0x00\n        /* \"#utility.yul\":6027:6036   */\n      dup4\n        /* \"#utility.yul\":6023:6040   */\n      add\n        /* \"#utility.yul\":6016:6063   */\n      mstore\n        /* \"#utility.yul\":6080:6211   */\n      tag_138\n        /* \"#utility.yul\":6206:6210   */\n      dup2\n        /* \"#utility.yul\":6080:6211   */\n      tag_78\n      jump\t// in\n    tag_138:\n        /* \"#utility.yul\":6072:6211   */\n      swap1\n      pop\n        /* \"#utility.yul\":5799:6218   */\n      swap2\n      swap1\n      pop\n      jump\t// out\n        /* \"#utility.yul\":6224:6404   */\n    tag_79:\n        /* \"#utility.yul\":6272:6349   */\n      0x4e487b7100000000000000000000000000000000000000000000000000000000\n        /* \"#utility.yul\":6269:6270   */\n      0x00\n        /* \"#utility.yul\":6262:6350   */\n      mstore\n        /* \"#utility.yul\":6369:6373   */\n      0x11\n        /* \"#utility.yul\":6366:6367   */\n      0x04\n        /* \"#utility.yul\":6359:6374   */\n      mstore\n        /* \"#utility.yul\":6393:6397   */\n      0x24\n        /* \"#utility.yul\":6390:6391   */\n      0x00\n        /* \"#utility.yul\":6383:6398   */\n      revert\n        /* \"#utility.yul\":6410:6604   */\n    tag_54:\n        /* \"#utility.yul\":6450:6454   */\n      0x00\n        /* \"#utility.yul\":6470:6490   */\n      tag_141\n        /* \"#utility.yul\":6488:6489   */\n      dup3\n        /* \"#utility.yul\":6470:6490   */\n      tag_61\n      jump\t// in\n    tag_141:\n        /* \"#utility.yul\":6465:6490   */\n      swap2\n      pop\n        /* \"#utility.yul\":6504:6524   */\n      tag_142\n        /* \"#utility.yul\":6522:6523   */\n      dup4\n        /* \"#utility.yul\":6504:6524   */\n      tag_61\n      jump\t// in\n    tag_142:\n        /* \"#utility.yul\":6499:6524   */\n      swap3\n      pop\n        /* \"#utility.yul\":6548:6549   */\n      dup3\n        /* \"#utility.yul\":6545:6546   */\n      dup3\n        /* \"#utility.yul\":6541:6550   */\n      sub\n        /* \"#utility.yul\":6533:6550   */\n      swap1\n      pop\n        /* \"#utility.yul\":6572:6573   */\n      dup2\n        /* \"#utility.yul\":6566:6570   */\n      dup2\n        /* \"#utility.yul\":6563:6574   */\n      gt\n        /* \"#utility.yul\":6560:6597   */\n      iszero\n      tag_143\n      jumpi\n        /* \"#utility.yul\":6577:6595   */\n      tag_144\n      tag_79\n      jump\t// in\n    tag_144:\n        /* \"#utility.yul\":6560:6597   */\n    tag_143:\n        /* \"#utility.yul\":6410:6604   */\n      swap3\n      swap2\n      pop\n      pop\n      jump\t// out\n        /* \"#utility.yul\":6610:6839   */\n    tag_80:\n        /* \"#utility.yul\":6750:6784   */\n      0x436f6e747261637420412062616c616e6365206469646e27742061646a757374\n        /* \"#utility.yul\":6746:6747   */\n      0x00\n        /* \"#utility.yul\":6738:6744   */\n      dup3\n        /* \"#utility.yul\":6734:6748   */\n      add\n        /* \"#utility.yul\":6727:6785   */\n      mstore\n        /* \"#utility.yul\":6819:6831   */\n      0x2070726f7065726c792e00000000000000000000000000000000000000000000\n        /* \"#utility.yul\":6814:6816   */\n      0x20\n        /* \"#utility.yul\":6806:6812   */\n      dup3\n        /* \"#utility.yul\":6802:6817   */\n      add\n        /* \"#utility.yul\":6795:6832   */\n      mstore\n        /* \"#utility.yul\":6610:6839   */\n      pop\n      jump\t// out\n        /* \"#utility.yul\":6845:7211   */\n    tag_81:\n        /* \"#utility.yul\":6987:6990   */\n      0x00\n        /* \"#utility.yul\":7008:7075   */\n      tag_147\n        /* \"#utility.yul\":7072:7074   */\n      0x2a\n        /* \"#utility.yul\":7067:7070   */\n      dup4\n        /* \"#utility.yul\":7008:7075   */\n      tag_73\n      jump\t// in\n    tag_147:\n        /* \"#utility.yul\":7001:7075   */\n      swap2\n      pop\n        /* \"#utility.yul\":7084:7177   */\n      tag_148\n        /* \"#utility.yul\":7173:7176   */\n      dup3\n        /* \"#utility.yul\":7084:7177   */\n      tag_80\n      jump\t// in\n    tag_148:\n        /* \"#utility.yul\":7202:7204   */\n      0x40\n        /* \"#utility.yul\":7197:7200   */\n      dup3\n        /* \"#utility.yul\":7193:7205   */\n      add\n        /* \"#utility.yul\":7186:7205   */\n      swap1\n      pop\n        /* \"#utility.yul\":6845:7211   */\n      swap2\n      swap1\n      pop\n      jump\t// out\n        /* \"#utility.yul\":7217:7636   */\n    tag_57:\n        /* \"#utility.yul\":7383:7387   */\n      0x00\n        /* \"#utility.yul\":7421:7423   */\n      0x20\n        /* \"#utility.yul\":7410:7419   */\n      dup3\n        /* \"#utility.yul\":7406:7424   */\n      add\n        /* \"#utility.yul\":7398:7424   */\n      swap1\n      pop\n        /* \"#utility.yul\":7470:7479   */\n      dup2\n        /* \"#utility.yul\":7464:7468   */\n      dup2\n        /* \"#utility.yul\":7460:7480   */\n      sub\n        /* \"#utility.yul\":7456:7457   */\n      0x00\n        /* \"#utility.yul\":7445:7454   */\n      dup4\n        /* \"#utility.yul\":7441:7458   */\n      add\n        /* \"#utility.yul\":7434:7481   */\n      mstore\n        /* \"#utility.yul\":7498:7629   */\n      tag_150\n        /* \"#utility.yul\":7624:7628   */\n      dup2\n        /* \"#utility.yul\":7498:7629   */\n      tag_81\n      jump\t// in\n    tag_150:\n        /* \"#utility.yul\":7490:7629   */\n      swap1\n      pop\n        /* \"#utility.yul\":7217:7636   */\n      swap2\n      swap1\n      pop\n      jump\t// out\n\n    auxdata: 0xa264697066735822122090a4bd21e3159baac8af80ee1c76ae70d2d9daf161d0b2b80e3a0a355834358e64736f6c634300081c0033\n}\n",
				"bytecode": {
					"linkReferences": {},
					"object": "608060405234801561000f575f5ffd5b506040516108d53803806108d583398181016040528101906100319190610115565b815f5f6101000a81548173ffffffffffffffffffffffffffffffffffffffff021916908373ffffffffffffffffffffffffffffffffffffffff1602179055508060015f6101000a81548173ffffffffffffffffffffffffffffffffffffffff021916908373ffffffffffffffffffffffffffffffffffffffff1602179055505050610153565b5f5ffd5b5f73ffffffffffffffffffffffffffffffffffffffff82169050919050565b5f6100e4826100bb565b9050919050565b6100f4816100da565b81146100fe575f5ffd5b50565b5f8151905061010f816100eb565b92915050565b5f5f6040838503121561012b5761012a6100b7565b5b5f61013885828601610101565b925050602061014985828601610101565b9150509250929050565b610775806101605f395ff3fe60806040526004361061004d575f3560e01c80633bed33ce146100585780633d99c193146100805780639ff8a368146100a8578063ddca3f43146100d2578063e6384616146100fc57610054565b3661005457005b5f5ffd5b348015610063575f5ffd5b5061007e600480360381019061007991906103e7565b610126565b005b34801561008b575f5ffd5b506100a660048036038101906100a191906103e7565b6101d2565b005b3480156100b3575f5ffd5b506100bc610361565b6040516100c99190610451565b60405180910390f35b3480156100dd575f5ffd5b506100e6610385565b6040516100f39190610479565b60405180910390f35b348015610107575f5ffd5b5061011061038b565b60405161011d91906104b2565b60405180910390f35b5f3373ffffffffffffffffffffffffffffffffffffffff168260405161014b906104f8565b5f6040518083038185875af1925050503d805f8114610185576040519150601f19603f3d011682016040523d82523d5f602084013e61018a565b606091505b50509050806101ce576040517f08c379a00000000000000000000000000000000000000000000000000000000081526004016101c590610566565b60405180910390fd5b5050565b5f60015f9054906101000a900473ffffffffffffffffffffffffffffffffffffffff1673ffffffffffffffffffffffffffffffffffffffff1663ced72f876040518163ffffffff1660e01b8152600401602060405180830381865afa15801561023d573d5f5f3e3d5ffd5b505050506040513d601f19601f820116820180604052508101906102619190610598565b905060058111156102a7576040517f08c379a000000000000000000000000000000000000000000000000000000000815260040161029e90610633565b60405180910390fd5b5f4790505f5f9054906101000a900473ffffffffffffffffffffffffffffffffffffffff1673ffffffffffffffffffffffffffffffffffffffff166108fc8490811502906040515f60405180830381858888f1935050505015801561030e573d5f5f3e3d5ffd5b50828161031b919061067e565b471461035c576040517f08c379a000000000000000000000000000000000000000000000000000000000815260040161035390610721565b60405180910390fd5b505050565b5f5f9054906101000a900473ffffffffffffffffffffffffffffffffffffffff1681565b60025481565b60015f9054906101000a900473ffffffffffffffffffffffffffffffffffffffff1681565b5f5ffd5b5f819050919050565b6103c6816103b4565b81146103d0575f5ffd5b50565b5f813590506103e1816103bd565b92915050565b5f602082840312156103fc576103fb6103b0565b5b5f610409848285016103d3565b91505092915050565b5f73ffffffffffffffffffffffffffffffffffffffff82169050919050565b5f61043b82610412565b9050919050565b61044b81610431565b82525050565b5f6020820190506104645f830184610442565b92915050565b610473816103b4565b82525050565b5f60208201905061048c5f83018461046a565b92915050565b5f61049c82610412565b9050919050565b6104ac81610492565b82525050565b5f6020820190506104c55f8301846104a3565b92915050565b5f81905092915050565b50565b5f6104e35f836104cb565b91506104ee826104d5565b5f82019050919050565b5f610502826104d8565b9150819050919050565b5f82825260208201905092915050565b7f5472616e73666572206661696c656400000000000000000000000000000000005f82015250565b5f610550600f8361050c565b915061055b8261051c565b602082019050919050565b5f6020820190508181035f83015261057d81610544565b9050919050565b5f81519050610592816103bd565b92915050565b5f602082840312156105ad576105ac6103b0565b5b5f6105ba84828501610584565b91505092915050565b7f46656520697320686967686572207468616e20352c2045746865722063616e275f8201527f742062652073656e742e00000000000000000000000000000000000000000000602082015250565b5f61061d602a8361050c565b9150610628826105c3565b604082019050919050565b5f6020820190508181035f83015261064a81610611565b9050919050565b7f4e487b71000000000000000000000000000000000000000000000000000000005f52601160045260245ffd5b5f610688826103b4565b9150610693836103b4565b92508282039050818111156106ab576106aa610651565b5b92915050565b7f436f6e747261637420412062616c616e6365206469646e27742061646a7573745f8201527f2070726f7065726c792e00000000000000000000000000000000000000000000602082015250565b5f61070b602a8361050c565b9150610716826106b1565b604082019050919050565b5f6020820190508181035f830152610738816106ff565b905091905056fea264697066735822122090a4bd21e3159baac8af80ee1c76ae70d2d9daf161d0b2b80e3a0a355834358e64736f6c634300081c0033",
					"opcodes": "PUSH1 0x80 PUSH1 0x40 MSTORE CALLVALUE DUP1 ISZERO PUSH2 0xF JUMPI PUSH0 PUSH0 REVERT JUMPDEST POP PUSH1 0x40 MLOAD PUSH2 0x8D5 CODESIZE SUB DUP1 PUSH2 0x8D5 DUP4 CODECOPY DUP2 DUP2 ADD PUSH1 0x40 MSTORE DUP2 ADD SWAP1 PUSH2 0x31 SWAP2 SWAP1 PUSH2 0x115 JUMP JUMPDEST DUP2 PUSH0 PUSH0 PUSH2 0x100 EXP DUP2 SLOAD DUP2 PUSH20 0xFFFFFFFFFFFFFFFFFFFFFFFFFFFFFFFFFFFFFFFF MUL NOT AND SWAP1 DUP4 PUSH20 0xFFFFFFFFFFFFFFFFFFFFFFFFFFFFFFFFFFFFFFFF AND MUL OR SWAP1 SSTORE POP DUP1 PUSH1 0x1 PUSH0 PUSH2 0x100 EXP DUP2 SLOAD DUP2 PUSH20 0xFFFFFFFFFFFFFFFFFFFFFFFFFFFFFFFFFFFFFFFF MUL NOT AND SWAP1 DUP4 PUSH20 0xFFFFFFFFFFFFFFFFFFFFFFFFFFFFFFFFFFFFFFFF AND MUL OR SWAP1 SSTORE POP POP POP PUSH2 0x153 JUMP JUMPDEST PUSH0 PUSH0 REVERT JUMPDEST PUSH0 PUSH20 0xFFFFFFFFFFFFFFFFFFFFFFFFFFFFFFFFFFFFFFFF DUP3 AND SWAP1 POP SWAP2 SWAP1 POP JUMP JUMPDEST PUSH0 PUSH2 0xE4 DUP3 PUSH2 0xBB JUMP JUMPDEST SWAP1 POP SWAP2 SWAP1 POP JUMP JUMPDEST PUSH2 0xF4 DUP2 PUSH2 0xDA JUMP JUMPDEST DUP2 EQ PUSH2 0xFE JUMPI PUSH0 PUSH0 REVERT JUMPDEST POP JUMP JUMPDEST PUSH0 DUP2 MLOAD SWAP1 POP PUSH2 0x10F DUP2 PUSH2 0xEB JUMP JUMPDEST SWAP3 SWAP2 POP POP JUMP JUMPDEST PUSH0 PUSH0 PUSH1 0x40 DUP4 DUP6 SUB SLT ISZERO PUSH2 0x12B JUMPI PUSH2 0x12A PUSH2 0xB7 JUMP JUMPDEST JUMPDEST PUSH0 PUSH2 0x138 DUP6 DUP3 DUP7 ADD PUSH2 0x101 JUMP JUMPDEST SWAP3 POP POP PUSH1 0x20 PUSH2 0x149 DUP6 DUP3 DUP7 ADD PUSH2 0x101 JUMP JUMPDEST SWAP2 POP POP SWAP3 POP SWAP3 SWAP1 POP JUMP JUMPDEST PUSH2 0x775 DUP1 PUSH2 0x160 PUSH0 CODECOPY PUSH0 RETURN INVALID PUSH1 0x80 PUSH1 0x40 MSTORE PUSH1 0x4 CALLDATASIZE LT PUSH2 0x4D JUMPI PUSH0 CALLDATALOAD PUSH1 0xE0 SHR DUP1 PUSH4 0x3BED33CE EQ PUSH2 0x58 JUMPI DUP1 PUSH4 0x3D99C193 EQ PUSH2 0x80 JUMPI DUP1 PUSH4 0x9FF8A368 EQ PUSH2 0xA8 JUMPI DUP1 PUSH4 0xDDCA3F43 EQ PUSH2 0xD2 JUMPI DUP1 PUSH4 0xE6384616 EQ PUSH2 0xFC JUMPI PUSH2 0x54 JUMP JUMPDEST CALLDATASIZE PUSH2 0x54 JUMPI STOP JUMPDEST PUSH0 PUSH0 REVERT JUMPDEST CALLVALUE DUP1 ISZERO PUSH2 0x63 JUMPI PUSH0 PUSH0 REVERT JUMPDEST POP PUSH2 0x7E PUSH1 0x4 DUP1 CALLDATASIZE SUB DUP2 ADD SWAP1 PUSH2 0x79 SWAP2 SWAP1 PUSH2 0x3E7 JUMP JUMPDEST PUSH2 0x126 JUMP JUMPDEST STOP JUMPDEST CALLVALUE DUP1 ISZERO PUSH2 0x8B JUMPI PUSH0 PUSH0 REVERT JUMPDEST POP PUSH2 0xA6 PUSH1 0x4 DUP1 CALLDATASIZE SUB DUP2 ADD SWAP1 PUSH2 0xA1 SWAP2 SWAP1 PUSH2 0x3E7 JUMP JUMPDEST PUSH2 0x1D2 JUMP JUMPDEST STOP JUMPDEST CALLVALUE DUP1 ISZERO PUSH2 0xB3 JUMPI PUSH0 PUSH0 REVERT JUMPDEST POP PUSH2 0xBC PUSH2 0x361 JUMP JUMPDEST PUSH1 0x40 MLOAD PUSH2 0xC9 SWAP2 SWAP1 PUSH2 0x451 JUMP JUMPDEST PUSH1 0x40 MLOAD DUP1 SWAP2 SUB SWAP1 RETURN JUMPDEST CALLVALUE DUP1 ISZERO PUSH2 0xDD JUMPI PUSH0 PUSH0 REVERT JUMPDEST POP PUSH2 0xE6 PUSH2 0x385 JUMP JUMPDEST PUSH1 0x40 MLOAD PUSH2 0xF3 SWAP2 SWAP1 PUSH2 0x479 JUMP JUMPDEST PUSH1 0x40 MLOAD DUP1 SWAP2 SUB SWAP1 RETURN JUMPDEST CALLVALUE DUP1 ISZERO PUSH2 0x107 JUMPI PUSH0 PUSH0 REVERT JUMPDEST POP PUSH2 0x110 PUSH2 0x38B JUMP JUMPDEST PUSH1 0x40 MLOAD PUSH2 0x11D SWAP2 SWAP1 PUSH2 0x4B2 JUMP JUMPDEST PUSH1 0x40 MLOAD DUP1 SWAP2 SUB SWAP1 RETURN JUMPDEST PUSH0 CALLER PUSH20 0xFFFFFFFFFFFFFFFFFFFFFFFFFFFFFFFFFFFFFFFF AND DUP3 PUSH1 0x40 MLOAD PUSH2 0x14B SWAP1 PUSH2 0x4F8 JUMP JUMPDEST PUSH0 PUSH1 0x40 MLOAD DUP1 DUP4 SUB DUP2 DUP6 DUP8 GAS CALL SWAP3 POP POP POP RETURNDATASIZE DUP1 PUSH0 DUP2 EQ PUSH2 0x185 JUMPI PUSH1 0x40 MLOAD SWAP2 POP PUSH1 0x1F NOT PUSH1 0x3F RETURNDATASIZE ADD AND DUP3 ADD PUSH1 0x40 MSTORE RETURNDATASIZE DUP3 MSTORE RETURNDATASIZE PUSH0 PUSH1 0x20 DUP5 ADD RETURNDATACOPY PUSH2 0x18A JUMP JUMPDEST PUSH1 0x60 SWAP2 POP JUMPDEST POP POP SWAP1 POP DUP1 PUSH2 0x1CE JUMPI PUSH1 0x40 MLOAD PUSH32 0x8C379A000000000000000000000000000000000000000000000000000000000 DUP2 MSTORE PUSH1 0x4 ADD PUSH2 0x1C5 SWAP1 PUSH2 0x566 JUMP JUMPDEST PUSH1 0x40 MLOAD DUP1 SWAP2 SUB SWAP1 REVERT JUMPDEST POP POP JUMP JUMPDEST PUSH0 PUSH1 0x1 PUSH0 SWAP1 SLOAD SWAP1 PUSH2 0x100 EXP SWAP1 DIV PUSH20 0xFFFFFFFFFFFFFFFFFFFFFFFFFFFFFFFFFFFFFFFF AND PUSH20 0xFFFFFFFFFFFFFFFFFFFFFFFFFFFFFFFFFFFFFFFF AND PUSH4 0xCED72F87 PUSH1 0x40 MLOAD DUP2 PUSH4 0xFFFFFFFF AND PUSH1 0xE0 SHL DUP2 MSTORE PUSH1 0x4 ADD PUSH1 0x20 PUSH1 0x40 MLOAD DUP1 DUP4 SUB DUP2 DUP7 GAS STATICCALL ISZERO DUP1 ISZERO PUSH2 0x23D JUMPI RETURNDATASIZE PUSH0 PUSH0 RETURNDATACOPY RETURNDATASIZE PUSH0 REVERT JUMPDEST POP POP POP POP PUSH1 0x40 MLOAD RETURNDATASIZE PUSH1 0x1F NOT PUSH1 0x1F DUP3 ADD AND DUP3 ADD DUP1 PUSH1 0x40 MSTORE POP DUP2 ADD SWAP1 PUSH2 0x261 SWAP2 SWAP1 PUSH2 0x598 JUMP JUMPDEST SWAP1 POP PUSH1 0x5 DUP2 GT ISZERO PUSH2 0x2A7 JUMPI PUSH1 0x40 MLOAD PUSH32 0x8C379A000000000000000000000000000000000000000000000000000000000 DUP2 MSTORE PUSH1 0x4 ADD PUSH2 0x29E SWAP1 PUSH2 0x633 JUMP JUMPDEST PUSH1 0x40 MLOAD DUP1 SWAP2 SUB SWAP1 REVERT JUMPDEST PUSH0 SELFBALANCE SWAP1 POP PUSH0 PUSH0 SWAP1 SLOAD SWAP1 PUSH2 0x100 EXP SWAP1 DIV PUSH20 0xFFFFFFFFFFFFFFFFFFFFFFFFFFFFFFFFFFFFFFFF AND PUSH20 0xFFFFFFFFFFFFFFFFFFFFFFFFFFFFFFFFFFFFFFFF AND PUSH2 0x8FC DUP5 SWAP1 DUP2 ISZERO MUL SWAP1 PUSH1 0x40 MLOAD PUSH0 PUSH1 0x40 MLOAD DUP1 DUP4 SUB DUP2 DUP6 DUP9 DUP9 CALL SWAP4 POP POP POP POP ISZERO DUP1 ISZERO PUSH2 0x30E JUMPI RETURNDATASIZE PUSH0 PUSH0 RETURNDATACOPY RETURNDATASIZE PUSH0 REVERT JUMPDEST POP DUP3 DUP2 PUSH2 0x31B SWAP2 SWAP1 PUSH2 0x67E JUMP JUMPDEST SELFBALANCE EQ PUSH2 0x35C JUMPI PUSH1 0x40 MLOAD PUSH32 0x8C379A000000000000000000000000000000000000000000000000000000000 DUP2 MSTORE PUSH1 0x4 ADD PUSH2 0x353 SWAP1 PUSH2 0x721 JUMP JUMPDEST PUSH1 0x40 MLOAD DUP1 SWAP2 SUB SWAP1 REVERT JUMPDEST POP POP POP JUMP JUMPDEST PUSH0 PUSH0 SWAP1 SLOAD SWAP1 PUSH2 0x100 EXP SWAP1 DIV PUSH20 0xFFFFFFFFFFFFFFFFFFFFFFFFFFFFFFFFFFFFFFFF AND DUP2 JUMP JUMPDEST PUSH1 0x2 SLOAD DUP2 JUMP JUMPDEST PUSH1 0x1 PUSH0 SWAP1 SLOAD SWAP1 PUSH2 0x100 EXP SWAP1 DIV PUSH20 0xFFFFFFFFFFFFFFFFFFFFFFFFFFFFFFFFFFFFFFFF AND DUP2 JUMP JUMPDEST PUSH0 PUSH0 REVERT JUMPDEST PUSH0 DUP2 SWAP1 POP SWAP2 SWAP1 POP JUMP JUMPDEST PUSH2 0x3C6 DUP2 PUSH2 0x3B4 JUMP JUMPDEST DUP2 EQ PUSH2 0x3D0 JUMPI PUSH0 PUSH0 REVERT JUMPDEST POP JUMP JUMPDEST PUSH0 DUP2 CALLDATALOAD SWAP1 POP PUSH2 0x3E1 DUP2 PUSH2 0x3BD JUMP JUMPDEST SWAP3 SWAP2 POP POP JUMP JUMPDEST PUSH0 PUSH1 0x20 DUP3 DUP5 SUB SLT ISZERO PUSH2 0x3FC JUMPI PUSH2 0x3FB PUSH2 0x3B0 JUMP JUMPDEST JUMPDEST PUSH0 PUSH2 0x409 DUP5 DUP3 DUP6 ADD PUSH2 0x3D3 JUMP JUMPDEST SWAP2 POP POP SWAP3 SWAP2 POP POP JUMP JUMPDEST PUSH0 PUSH20 0xFFFFFFFFFFFFFFFFFFFFFFFFFFFFFFFFFFFFFFFF DUP3 AND SWAP1 POP SWAP2 SWAP1 POP JUMP JUMPDEST PUSH0 PUSH2 0x43B DUP3 PUSH2 0x412 JUMP JUMPDEST SWAP1 POP SWAP2 SWAP1 POP JUMP JUMPDEST PUSH2 0x44B DUP2 PUSH2 0x431 JUMP JUMPDEST DUP3 MSTORE POP POP JUMP JUMPDEST PUSH0 PUSH1 0x20 DUP3 ADD SWAP1 POP PUSH2 0x464 PUSH0 DUP4 ADD DUP5 PUSH2 0x442 JUMP JUMPDEST SWAP3 SWAP2 POP POP JUMP JUMPDEST PUSH2 0x473 DUP2 PUSH2 0x3B4 JUMP JUMPDEST DUP3 MSTORE POP POP JUMP JUMPDEST PUSH0 PUSH1 0x20 DUP3 ADD SWAP1 POP PUSH2 0x48C PUSH0 DUP4 ADD DUP5 PUSH2 0x46A JUMP JUMPDEST SWAP3 SWAP2 POP POP JUMP JUMPDEST PUSH0 PUSH2 0x49C DUP3 PUSH2 0x412 JUMP JUMPDEST SWAP1 POP SWAP2 SWAP1 POP JUMP JUMPDEST PUSH2 0x4AC DUP2 PUSH2 0x492 JUMP JUMPDEST DUP3 MSTORE POP POP JUMP JUMPDEST PUSH0 PUSH1 0x20 DUP3 ADD SWAP1 POP PUSH2 0x4C5 PUSH0 DUP4 ADD DUP5 PUSH2 0x4A3 JUMP JUMPDEST SWAP3 SWAP2 POP POP JUMP JUMPDEST PUSH0 DUP2 SWAP1 POP SWAP3 SWAP2 POP POP JUMP JUMPDEST POP JUMP JUMPDEST PUSH0 PUSH2 0x4E3 PUSH0 DUP4 PUSH2 0x4CB JUMP JUMPDEST SWAP2 POP PUSH2 0x4EE DUP3 PUSH2 0x4D5 JUMP JUMPDEST PUSH0 DUP3 ADD SWAP1 POP SWAP2 SWAP1 POP JUMP JUMPDEST PUSH0 PUSH2 0x502 DUP3 PUSH2 0x4D8 JUMP JUMPDEST SWAP2 POP DUP2 SWAP1 POP SWAP2 SWAP1 POP JUMP JUMPDEST PUSH0 DUP3 DUP3 MSTORE PUSH1 0x20 DUP3 ADD SWAP1 POP SWAP3 SWAP2 POP POP JUMP JUMPDEST PUSH32 0x5472616E73666572206661696C65640000000000000000000000000000000000 PUSH0 DUP3 ADD MSTORE POP JUMP JUMPDEST PUSH0 PUSH2 0x550 PUSH1 0xF DUP4 PUSH2 0x50C JUMP JUMPDEST SWAP2 POP PUSH2 0x55B DUP3 PUSH2 0x51C JUMP JUMPDEST PUSH1 0x20 DUP3 ADD SWAP1 POP SWAP2 SWAP1 POP JUMP JUMPDEST PUSH0 PUSH1 0x20 DUP3 ADD SWAP1 POP DUP2 DUP2 SUB PUSH0 DUP4 ADD MSTORE PUSH2 0x57D DUP2 PUSH2 0x544 JUMP JUMPDEST SWAP1 POP SWAP2 SWAP1 POP JUMP JUMPDEST PUSH0 DUP2 MLOAD SWAP1 POP PUSH2 0x592 DUP2 PUSH2 0x3BD JUMP JUMPDEST SWAP3 SWAP2 POP POP JUMP JUMPDEST PUSH0 PUSH1 0x20 DUP3 DUP5 SUB SLT ISZERO PUSH2 0x5AD JUMPI PUSH2 0x5AC PUSH2 0x3B0 JUMP JUMPDEST JUMPDEST PUSH0 PUSH2 0x5BA DUP5 DUP3 DUP6 ADD PUSH2 0x584 JUMP JUMPDEST SWAP2 POP POP SWAP3 SWAP2 POP POP JUMP JUMPDEST PUSH32 0x46656520697320686967686572207468616E20352C2045746865722063616E27 PUSH0 DUP3 ADD MSTORE PUSH32 0x742062652073656E742E00000000000000000000000000000000000000000000 PUSH1 0x20 DUP3 ADD MSTORE POP JUMP JUMPDEST PUSH0 PUSH2 0x61D PUSH1 0x2A DUP4 PUSH2 0x50C JUMP JUMPDEST SWAP2 POP PUSH2 0x628 DUP3 PUSH2 0x5C3 JUMP JUMPDEST PUSH1 0x40 DUP3 ADD SWAP1 POP SWAP2 SWAP1 POP JUMP JUMPDEST PUSH0 PUSH1 0x20 DUP3 ADD SWAP1 POP DUP2 DUP2 SUB PUSH0 DUP4 ADD MSTORE PUSH2 0x64A DUP2 PUSH2 0x611 JUMP JUMPDEST SWAP1 POP SWAP2 SWAP1 POP JUMP JUMPDEST PUSH32 0x4E487B7100000000000000000000000000000000000000000000000000000000 PUSH0 MSTORE PUSH1 0x11 PUSH1 0x4 MSTORE PUSH1 0x24 PUSH0 REVERT JUMPDEST PUSH0 PUSH2 0x688 DUP3 PUSH2 0x3B4 JUMP JUMPDEST SWAP2 POP PUSH2 0x693 DUP4 PUSH2 0x3B4 JUMP JUMPDEST SWAP3 POP DUP3 DUP3 SUB SWAP1 POP DUP2 DUP2 GT ISZERO PUSH2 0x6AB JUMPI PUSH2 0x6AA PUSH2 0x651 JUMP JUMPDEST JUMPDEST SWAP3 SWAP2 POP POP JUMP JUMPDEST PUSH32 0x436F6E747261637420412062616C616E6365206469646E27742061646A757374 PUSH0 DUP3 ADD MSTORE PUSH32 0x2070726F7065726C792E00000000000000000000000000000000000000000000 PUSH1 0x20 DUP3 ADD MSTORE POP JUMP JUMPDEST PUSH0 PUSH2 0x70B PUSH1 0x2A DUP4 PUSH2 0x50C JUMP JUMPDEST SWAP2 POP PUSH2 0x716 DUP3 PUSH2 0x6B1 JUMP JUMPDEST PUSH1 0x40 DUP3 ADD SWAP1 POP SWAP2 SWAP1 POP JUMP JUMPDEST PUSH0 PUSH1 0x20 DUP3 ADD SWAP1 POP DUP2 DUP2 SUB PUSH0 DUP4 ADD MSTORE PUSH2 0x738 DUP2 PUSH2 0x6FF JUMP JUMPDEST SWAP1 POP SWAP2 SWAP1 POP JUMP INVALID LOG2 PUSH5 0x6970667358 0x22 SLT KECCAK256 SWAP1 LOG4 0xBD 0x21 0xE3 ISZERO SWAP12 0xAA 0xC8 0xAF DUP1 0xEE SHR PUSH23 0xAE70D2D9DAF161D0B2B80E3A0A355834358E64736F6C63 NUMBER STOP ADDMOD SHR STOP CALLER "
				},
				"gasEstimates": {
					"creation": {
						"codeDepositCost": "381800",
						"executionCost": "infinite",
						"totalCost": "infinite"
					},
					"external": {
						"contractB()": "2529",
						"contractD()": "2574",
						"fee()": "2469",
						"sendAEtherToContratoB(uint256)": "infinite",
						"withdrawEther(uint256)": "infinite"
					}
				},
				"methodIdentifiers": {
					"contractB()": "9ff8a368",
					"contractD()": "e6384616",
					"fee()": "ddca3f43",
					"sendAEtherToContratoB(uint256)": "3d99c193",
					"withdrawEther(uint256)": "3bed33ce"
				}
			},
			"storageLayout": {
				"storage": [
					{
						"astId": 14,
						"contract": "Bloque 4 Remix/J.12-MyOwnExercise/ContractA.sol:ContratoA",
						"label": "contractB",
						"offset": 0,
						"slot": "0",
						"type": "t_address_payable"
					},
					{
						"astId": 16,
						"contract": "Bloque 4 Remix/J.12-MyOwnExercise/ContractA.sol:ContratoA",
						"label": "contractD",
						"offset": 0,
						"slot": "1",
						"type": "t_address"
					},
					{
						"astId": 18,
						"contract": "Bloque 4 Remix/J.12-MyOwnExercise/ContractA.sol:ContratoA",
						"label": "fee",
						"offset": 0,
						"slot": "2",
						"type": "t_uint256"
					}
				],
				"types": {
					"t_address": {
						"encoding": "inplace",
						"label": "address",
						"numberOfBytes": "20"
					},
					"t_address_payable": {
						"encoding": "inplace",
						"label": "address payable",
						"numberOfBytes": "20"
					},
					"t_uint256": {
						"encoding": "inplace",
						"label": "uint256",
						"numberOfBytes": "32"
					}
				}
			},
			"userdoc": {
				"kind": "user",
				"methods": {},
				"version": 1
			}
		}
	}
}